:020000040800F2
:10000000600600206D01000869050008A3030008D0
:100010006505000827020008DD0600080000000052
:100020000000000000000000000000008D05000836
:100030002B020008000000006B050008790600088C
:100040008701000887010008870100088701000870
:100050008701000887010008870100088701000860
:100060008701000887010008870100088701000850
:100070008701000887010008870100088701000840
:100080008701000887010008870100088701000830
:100090008701000887010008870100088701000820
:1000A0008701000887010008870100088701000810
:1000B0008701000887010008870100088701000800
:1000C00087010008870100088701000887010008F0
:1000D00087010008870100088701000887010008E0
:1000E00087010008870100088701000800F002F876
:1000F00000F02CF80AA090E8000C82448344AAF196
:100100000107DA4501D100F021F8AFF2090EBAE893
:100110000F0013F0010F18BFFB1A43F0010318473B
:10012000D0050000E0050000002300240025002683
:10013000103A28BF78C1FBD8520728BF30C148BF4A
:100140000B6070471FB51FBD10B510BD00F031F832
:100150001146FFF7F7FF00F0C3FA00F04FF803B4C1
:10016000FFF7F2FF03BC00F057F800000948804792
:1001700009480047FEE7FEE7FEE7FEE7FEE7FEE789
:10018000FEE7FEE7FEE7FEE704480549054A064BA1
:10019000704700007D060008ED00000860000020A8
:1001A0006006002060020020600200207047704757
:1001B0007047754600F02CF8AE4605006946534678
:1001C00020F00700854618B020B5FFF7DDFFBDE839
:1001D00020404FF000064FF000074FF000084FF0AE
:1001E000000B21F00701AC46ACE8C009ACE8C0093F
:1001F000ACE8C009ACE8C0098D46704710B50446AC
:10020000AFF300802046BDE81040FFF7A8BF000014
:10021000004870470000002001491820ABBEFEE7EF
:1002200026000200704700BFFEE7704700B5034696
:1002300003E04FF47A7000F005F8181EA3F10103F3
:10024000F7D100BD00EBC001C9004FF0E0225161C1
:10025000002191610521116100BF4FF0E021096982
:1002600001F480310029F8D004214FF0E02211611F
:1002700070472DE9F04102460025002600200023AA
:100280000024002791F803C00CF00F0591F803C07B
:100290000CF0100CBCF1000F03D091F802C04CEA36
:1002A000050591F800C0BCF1000F31D014680020A2
:1002B0002BE04FF0010C0CFA00F3B1F800C00CEA8F
:1002C00003069E4220D183004FF00F0C0CFA03F777
:1002D000BC4305FA03FC4CEA040491F803C0BCF1EA
:1002E000280F06D14FF0010C0CFA00FCC2F814C024
:1002F0000AE091F803C0BCF1480F05D14FF0010CA2
:100300000CFA00FCC2F810C0401C0828D1D31460BD
:10031000B1F800C0BCF1FF0F34DD546800202EE0BE
:1003200000F1080C4FF0010808FA0CF3B1F800C016
:100330000CEA03069E4221D183004FF00F0C0CFA09
:1003400003F7BC4305FA03FC4CEA040491F803C02C
:10035000BCF1280F05D100F1080C08FA0CF8C2F81E
:10036000148091F803C0BCF1480F07D100F1080CCC
:100370004FF0010808FA0CF8C2F81080401C082859
:10038000CED35460BDE8F0810246002093680B4054
:100390000BB1012000E0002070474161704701610E
:1003A000704700BFFEE7000010B5002420210A4876
:1003B000FFF7EAFF68B91420FFF738FF00BF2021DC
:1003C0000548FFF7E1FF0028F9D01420FFF72EFFC2
:1003D0000124204610BD00000010014010B500248B
:1003E0004FF400410A48FFF7CFFF70B91420FFF720
:1003F0001DFF00BF4FF400410548FFF7C5FF00286F
:10040000F8D01420FFF712FF0124204610BD000091
:10041000000801401CB50121102000F0A7F8482079
:100420008DF807002020ADF8040003208DF80600A9
:1004300001A90B48FFF71DFF0121102000F096F8DD
:1004400048208DF803004FF40040ADF80000032071
:100450008DF8020069460248FFF70BFF1CBD000043
:100460000010014080464546FFF7D4FF4FF00009D9
:1004700001244AE0FFF798FF8246FFF7AFFF0746E7
:10048000BAF1010F01D1681DC5B2012F01D1681F5A
:10049000C5B205B905252D2D00D10525B9F1000FEF
:1004A00018D100260EE0012000F04AF82046FFF7A0
:1004B000C9FE002000F044F840F2F511081BFFF7D8
:1004C000C1FE761CAE42EEDB641CB4F5FA7F01D1AE
:1004D0004FF00109B9F1010F17D100260EE00120FC
:1004E00000F02EF82046FFF7ADFE002000F028F8BF
:1004F00040F2F511081BFFF7A5FE761CAE42EEDBBD
:10050000641E012C01D14FF00009B3E708B50121A9
:10051000202000F02BF810208DF803000420ADF807
:10052000000003208DF8020069460448FFF7A1FE91
:1005300004210248FFF733FF08BD0000001401400A
:1005400010B50446012C04D104210548FFF725FF0E
:1005500004E01CB904210248FFF721FF10BD000090
:100560000014014000BFFEE77047704729B1064AFA
:1005700092690243044B9A6104E0034A9269824300
:10058000014B9A617047000000100240704710B59F
:1005900000F002F810BD00000CB5002001900090A2
:1005A0003348006840F480303149086000BF30486B
:1005B000006800F4003000900198401C0190009801
:1005C00018B90198B0F5A06FF1D12948006800F47E
:1005D000003010B10120009001E000200090009850
:1005E000012843D12348006840F0100021490860E9
:1005F0000846006820F0070008600846006840F0E0
:10060000020008601A484068194948600846406876
:1006100048600846406840F480604860084640688A
:1006200020F47C1048600846406840F4E8104860B8
:100630000846006840F08070086000BF0C48006801
:1006400000F000700028F9D00948406820F003004D
:10065000074948600846406840F00200486000BF13
:100660000348406800F00C000828F9D10CBD0000D8
:1006700000100240002002407047000010B51348EF
:10068000006840F0010011490860084640681049C0
:1006900008400E494860084600680E4908400B496A
:1006A00008600846006820F480200860084640681A
:1006B00020F4FE0048604FF41F008860FFF767FFDA
:1006C0004FF000600449086010BD000000100240B7
:1006D0000000FFF8FFFFF6FE08ED00E000BFFEE7B8
:1006E00010B5FFF713FF0520FFF7BCFE002010BD7B
:1006F0000007000800000020600600002801000834
:04000005080000ED02
:00000001FF
