:020000040800F2
:1000000018050020010100080D410008DD09000865
:1000100009410008A90700082B460008000000005D
:1000200000000000000000000000000091420008F5
:10003000AD0700080000000081410008A54300084A
:100040001B0100081B0100081B0100081B01000820
:100050001B0100081B0100081B0100081B01000810
:100060001B0100081B0100081B0100081B01000800
:100070001B0100081B0100081B0100081B010008F0
:100080001B0100081B0100081B0100081B010008E0
:100090001B0100081B0100081B010008D90700080C
:1000A0001B0100081B0100081B0100081B010008C0
:1000B0001B0100081B0100081B0100081B010008B0
:1000C0001B0100081B0100081B0100081B010008A0
:1000D0001B010008094400081B0100081B0100085F
:1000E000B10700081B0100081B010008DFF80CD055
:1000F00000F00CFA004800475D4A0008180500208F
:100100000648804706480047FEE7FEE7FEE7FEE7B1
:10011000FEE7FEE7FEE7FEE7FEE7FEE7A94300088D
:10012000ED00000830B480EA010202F0004530F032
:10013000004221F0004013D090B1C30DD40DC2F3A2
:100140001601C0F31600E41A41F4000140F4000265
:100150007D34914201D3641C00E04900002C02DA96
:1001600030BC002070474FF400000023914201D3BF
:10017000891A034340084FEA4101F7D151B1914236
:1001800002D14FF0004105E002D24FF0010101E041
:100190006FF0010103EBC450284430BC00F021B9DA
:1001A0002DE9FE4F81EA030404F0004421F00041F0
:1001B00000944FF0000B23F0004350EA01045ED09E
:1001C00052EA03045BD0C3F30A54C1F30A552C442A
:1001D000A4F2F3340194A0FB0254C1F3130141F4DF
:1001E0008011C3F3130343F4801301FB024400FBAB
:1001F000034E840A970A44EA815447EA8357A4FBD2
:10020000076802958D0A05FB07854FEA932C04FBCE
:100210000C542705029D4FEA065847EA1637B5EBFE
:1002200008056EEB070C870E920E47EA811742EA2B
:100230008312A7FB0201B6EB0B0164EB00042B0D4C
:1002400043EA0C335E1844EB1C50DA465146E7FB98
:100250000201C5F313044FEA0B3343EA14534FEA88
:100260000432019C43EA0603A4F10C040294009CAE
:10027000CDE900B400F0FBF803B0BDE8F08F00203A
:100280000146F9E796230022114600F0B3B80EB5F7
:1002900040F2334102910021CDE900110A460B469C
:1002A00000F0E5F803B000BD20F00040C10DC0F340
:1002B000160040F400007F2901DA002070479629DB
:1002C00003DCC1F19601C8407047963988407047F9
:1002D000C1F30A5210B5C1F3130140F2FF3341F4E8
:1002E00080119A4201DA002010BD40F233439A4255
:1002F000A2F2334203DC524200F063F810BD90409A
:1003000010BD00F0004230F000400AD0C10D01F5F0
:100310006071C0F3160042EA0151C2084007114360
:10032000704700200146704701F0004330B421F0CF
:10033000004150EA010206D00A0DA2F56072C1F335
:100340001301002A02DC30BC00207047440F44EA4D
:10035000C104C100E01830BC00EBC25000F041B84D
:100360002DE9F05F0546002092469B4688460646EA
:10037000814640241BE0284641464746224600F07D
:1003800020F853465A46C01A914110D311461846D8
:10039000224600F0CDF82D1A67EB01084F462246A1
:1003A0000120002100F0C4F817EB00094E41201E87
:1003B000A4F10104DFDC484631462A464346BDE845
:1003C000F09F202A04DB203A21FA02F00021704736
:1003D00021FA02F3D040C2F12002914008431946AD
:1003E00070470029A8BF7047401C490008BF20F093
:1003F0000100704710B4B0FA80FC00FA0CF050EA2B
:10040000010404BF10BC704749B1CCF1200421FAAB
:1004100004F411FA0CF118BF012121430843A3EBA6
:100420000C01CB1D4FEA00614FEA102042BF0020B3
:1004300010BC704700EBC35010440029A4BF10BC8F
:100440007047401C490008BF20F0010010BC7047F5
:1004500010B5141E73F1000408DA401C41F10001CC
:1004600092185B411A4301D120F0010010BD2DE923
:10047000F04D92469B4611B1B1FA81F202E0B0FA1A
:1004800080F22032904600F053F804460F4640EACE
:100490000A0041EA0B0153465A46084313D011465D
:1004A00053EA010019D0C8F140025046FFF789FF16
:1004B00005460E4650465946424600F039F8084374
:1004C00005D0012004E020463946BDE8F08D00202B
:1004D000054346EAE0762C4337430A986305E40A6D
:1004E000A0EB08000022FD0A44EA47540A3002D576
:1004F00000200146E9E7010510196941DDE90845D9
:1005000000196941BDE8F04DA2E70000064C074D17
:1005100006E0E06840F0010394E8070098471034D3
:10052000AC42F6D3FFF7E6FDA0630008C063000805
:10053000202A04DB203A00FA02F1002070479140A3
:10054000C2F1200320FA03F319439040704721B110
:10055000826842F00102826003E0826822F00102B8
:1005600082607047014600208A6802F004020AB1E6
:10057000012000E0002070470146C86C80B270473F
:100580000246002013680B400BB1012000E0002060
:100590007047014600208A6802F008020AB1012073
:1005A00000E000207047000030B502460020002324
:1005B00050680F4C20400D790C6844EA0524204314
:1005C000506090680B4C2040D1E902542C434D7987
:1005D00044EA450420439060D06A20F470000C7C0B
:1005E000641EE4B2234340EA0350D06230BD0000F1
:1005F000FFFEF0FFFDF7F1FFF0B504460D460020C9
:100600000021092D11DDE068A5F10A0606EB460779
:10061000072606FA07F18843A5F10A0606EB460607
:1006200003FA06F10843E0600CE0206905EB45079A
:10063000072606FA07F1884305EB450603FA06F19B
:1006400008432061072A0FDA606B561E06EB860707
:100650001F2606FA07F18843561E06EB860605FAA2
:1006600006F10843606322E00D2A0FDA206BD61FE3
:1006700006EB86071F2606FA07F18843D61F06EB0E
:10068000860605FA06F10843206310E0E06AA2F14D
:100690000D0606EB86071F2606FA07F18843A2F12E
:1006A0000D0606EB860605FA06F10843E062F0BD8A
:1006B000816841F008018160704721B1826842F48D
:1006C000A002826003E0826822F4A0028260704788
:1006D000816841F0040181607047000010B501217C
:1006E0000648FFF7EAFF00BF02210448FFF748FF72
:1006F0000028F9D00148FFF73FFF10BD002401405A
:1007000000B587B00121480203F048FD0121102007
:1007100003F044FD4FF4004003F034FD00208DF859
:100720001B001020ADF8180003208DF81A0006A950
:100730001B4800F07DF8052301220E211948FFF720
:100740005BFF0020019004904FF460200390002094
:100750008DF809008DF8080001208DF8140001A91A
:100760001048FFF721FF01210E48FFF7F0FE0D486A
:10077000FFF79EFF00BF0B48FFF70BFF0128FAD0E1
:100780000848FFF7A5FF00BF0648FFF7EBFE01286A
:10079000FAD001210348FFF790FF07B000BD000029
:1007A000001001400024014000BFFEE77047000038
:1007B00010B54FF4004000F027F8012808D1054893
:1007C0000068401F034908604FF4004000F016F82D
:1007D00010BD00003400002010B5202000F014F8F7
:1007E000012807D104480068401D03490860202003
:1007F00000F004F810BD000034000020014908603A
:100800007047000014040140014600200022074BFD
:100810001B6803EA0102054B14331B680B4013B13C
:100820000AB1012000E000207047000000040140F0
:100830002DE9F04102460025002600200023002477
:10084000002791F803C00CF00F0591F803C00CF0DD
:10085000100CBCF1000F03D091F802C04CEA050562
:1008600091F800C0BCF1000F31D0146800202BE0DB
:100870004FF0010C0CFA00F3B1F800C00CEA0306CB
:100880009E4220D183004FF00F0C0CFA03F7BC43BB
:1008900005FA03FC4CEA040491F803C0BCF1280FEC
:1008A00006D14FF0010C0CFA00FCC2F814C00AE0AB
:1008B00091F803C0BCF1480F05D14FF0010C0CFAC0
:1008C00000FCC2F810C0401C0828D1D31460B1F855
:1008D00000C0BCF1FF0F34DD546800202EE000F1B1
:1008E000080C4FF0010808FA0CF3B1F800C00CEA4C
:1008F00003069E4221D183004FF00F0C0CFA03F740
:10090000BC4305FA03FC4CEA040491F803C0BCF1B3
:10091000280F05D100F1080C08FA0CF8C2F8148071
:1009200091F803C0BCF1480F07D100F1080C4FF05B
:10093000010808FA0CF8C2F81080401C0828CED331
:100940005460BDE8F0810000F0B50A4600230024A1
:100950000021002500F00046B6F1004F02D11D4EE7
:10096000F16901E01B4E7168C0F3034583B200F4E6
:100970004016B6F5401F08D121F07061154E76681B
:1009800026F07066134F7E6012E000F48016B6F514
:10099000801F06D1032606FA05F4A14341F07061D9
:1009A00006E0460D360103FA06F6B14341F07061E8
:1009B00022B1460D360103FA06F6314300F0004637
:1009C000B6F1004F02D1034EF16101E0014E7160BA
:1009D000F0BD0000000001400161704700BFFEE76C
:1009E00070B5044600260E4805884088454300211E
:1009F000084603F00FF903F067FB00BF0DE04FF46A
:100A00008070084908614000486107480460802000
:100A10004861086180000861761CAE42EFD370BD6A
:100A200004010020001001400C0C014010B50446E8
:100A300049488471002C45D1F020474908804FF483
:100A4000A07048800846808845F21051884210D135
:100A50004FF43050404908814FF4285048814FF4FA
:100A60002C5088814FF4F07008804FF44870488013
:100A70001AE03948808841F6631188420DD12C2054
:100A8000354908812B2048812A2088814FF4F07055
:100A900008804FF44870488006E02C202E490881D9
:100AA0002A2048812B2088812B48808845F21031EC
:100AB00088424CD14FF4A070274908804FF4F07061
:100AC000488044E04FF4A07023490880F02048801B
:100AD0000846808845F21051884210D14FF43050BA
:100AE0001D4908814FF4285048814FF42C508881CB
:100AF0004FF4487008804FF4F07048801AE01648B0
:100B0000808841F6631188420DD12C20124908815A
:100B10002A2048812B2088814FF4487008804FF4A8
:100B2000F070488006E02C200B4908812A2048817B
:100B30002B2088810848808845F21031884206D1F0
:100B40004FF4F070044908804FF4A07048800020F2
:100B500002F090FE10BD00000401002030B50346F5
:100B60000C4615469B48808845F21051884250D16A
:100B70009849488903F096FA4FF4807096490861C5
:100B800040004861181295490860802092494861E8
:100B90000861800008618F494989491C88B203F0C7
:100BA00081FA4FF480708C49086140004861D8B2E6
:100BB0008A4908608020884948610861800008618E
:100BC0008449888903F06EFA4FF480708249086185
:100BD0004000486120128149086080207E494861B8
:100BE0000861800008617B498989491C88B203F04B
:100BF00059FA4FF480707849086140004861E0B2CA
:100C00007649086080207449486108618000086165
:100C1000C3E07048808841F6631188427DD16D48F9
:100C2000807920B96B480088401EC01A83B2694998
:100C3000488903F037FA4FF4807067490861400033
:100C4000486118126549086080206349486108615D
:100C5000800008614010086140004861D8B25F49D7
:100C6000086080205C49486108618000086140108C
:100C700008614000486118125849086080205649B0
:100C800048610861800008614010086140004861C7
:100C9000D8B25249086080204F49486108618000FD
:100CA00008614C49888903F0FDF94FF480704A4986
:100CB0000861400048612012484908608020464988
:100CC0004861086180000861401008614000486187
:100CD000E0B24249086080203F49486108618000D5
:100CE0000861401008614000486120123B490860DB
:100CF000802039494861086180000861401008611E
:100D000040004861E0B235490860802032494861BE
:100D100008618000086140E0FFE72E49488903F040
:100D2000C1F94FF480702C490861400048611812E5
:100D30002A490860802028494861086180000861CC
:100D40004010086140004861D8B224490860802002
:100D5000214948610861800008611E49888903F0C3
:100D6000A1F94FF480701C490861400048612012CD
:100D70001A490860802018494861086180000861AC
:100D80004010086140004861E0B2144908608020CA
:100D9000114948610861800008614FF480700E4974
:100DA0004861400048610B4800890C490860802078
:100DB00009494861086180000861401008614000ED
:100DC000486106480560802048610861800008612C
:100DD00030BD000004010020001001400C0C014057
:100DE00008B50121192003F0D9F90121FE48FFF7C8
:100DF000ABFD4FF4F860ADF8000010208DF8030053
:100E000003208DF802006946F848FFF711FD4FF402
:100E1000F861F648FFF7E0FD4FF6FF70ADF800000F
:100E20006946F348FFF704FD4FF6FF71F048FFF7FE
:100E3000D3FD322003F0B8FD0121002003F04CF96E
:100E4000322003F0B1FDD32003F02CF902F078FC3E
:100E5000E849888002F074FCE649888002F070FC62
:100E6000E4498880084680884FF6FF7101EA002037
:100E7000E049888002F064FCDE4989880843DD4946
:100E800088800846808849F2413188427DD004201C
:100E900003F008F902F054FCD649888002F050FCB7
:100EA000D449888002F04CFCD2498880084680886A
:100EB0004FF6FF7101EA0020CE49888002F040FC25
:100EC000CC4989880843CB4988800846808848F205
:100ED0005251884203D147F28970C6498880C5487B
:100EE000808847F289718842D0D0D42003F0DAF8A4
:100EF00002F026FCBF49888002F022FCBD498880B0
:100F000002F01EFCBB498880084680884FF6FF71BE
:100F100001EA0020B749888002F012FCB5498988AF
:100F20000843B44988800846808845F210318842D9
:100F300062D055214FF4704003F0CEF8AA214FF251
:100F4000010003F0C9F852214FF2020003F0C4F887
:100F500008214FF2030003F0BFF801214FF2040013
:100F600003F0BAF84FF4454003F09CF802F0E8FBB8
:100F7000A0498880084680884FF6FF7101EA00206A
:100F80009C4988804CF2015000E035E003F08AF87B
:100F900002F0D6FB97498988084396498880052046
:100FA00003F002FD9348808845F21051884223D017
:100FB000A12003F077F802F0C3FB8E49888002F08D
:100FC000BFFB8C498880084680884FF6FF7101EA94
:100FD00000208849888002F0B3FB8649898808434D
:100FE000844988800846808845F26171884203D12F
:100FF00041F663107F4988807E4881887EA003F097
:1010000017FB7C48808849F2413188427ED1CF204D
:1010100003F048F8002003F033F8C12003F030F863
:10102000302003F02DF8ED2003F03CF8642003F0AD
:1010300027F8032003F024F8122003F021F8812080
:1010400003F01EF8E82003F02DF8852003F018F8CF
:10105000102003F015F87A2003F012F8CB2003F0EB
:1010600021F8392003F00CF82C2003F009F80020B7
:1010700003F006F8342003F003F8022003F000F830
:10108000F72003F00FF8202002F0FAFFEA2003F027
:1010900009F8002002F0F4FF002002F0F1FFC02068
:1010A00003F000F81B2002F0EBFFC12002F0FAFF72
:1010B000012002F0E5FFC52002F0F4FF302002F02D
:1010C000DFFF302002F0DCFFC72002F0EBFFB7208B
:1010D00002F0D6FF362002F0E5FF482002F0D0FFF4
:1010E0003A2002F0DFFF552002F0CAFFB12002F0E3
:1010F000D9FF002002F0C4FF1A2002F0C1FFB62081
:1011000002F0D0FF0A2002F0BBFF00E0A8E0A2201E
:1011100002F0B6FFF22002F0C5FF002002F0B0FF9F
:10112000262002F0BFFF012002F0AAFFE02002F01B
:10113000B9FF0F2002F0A4FF2A2002F0A1FF28200F
:1011400002F09EFF082002F09BFF0E2002F098FFA5
:10115000082002F095FF542002F092FFA92002F02F
:101160008FFF432002F08CFF0A2002F089FF0F203E
:1011700002F086FF002002F083FF002002F080FFD3
:10118000002002F07DFF002002F07AFFE12002F053
:1011900089FF002002F074FF152002F071FF172074
:1011A00002F06EFF072002F06BFF112002F068FFD3
:1011B000062002F065FF2B2002F062FF562002F0AD
:1011C0005FFF3C2002F05CFF052002F059FF102079
:1011D00002F056FF0F2002F053FF3F2002F050FFB5
:1011E0003F2002F04DFF0FE00002300000100140F0
:1011F000000C014004010020204C43442049443AA3
:1012000025780D0A000000000F2002F039FF2B2086
:1012100002F048FF002002F033FF002002F030FF10
:10122000012002F02DFF3F2002F02AFF2A2002F0C9
:1012300039FF002002F024FF002002F021FF0020EF
:1012400002F01EFFEF2002F01BFF112002F02AFF28
:10125000782003F0A9FB292002F024FF02F05FBAF6
:10126000FE48808847F2897188427CD1112002F0C3
:1012700019FF782003F098FB362002F013FF0020BE
:1012800002F0FEFE3A2002F00DFF052002F0F8FE0B
:10129000B22002F007FF0C2002F0F2FE0C2002F058
:1012A000EFFE002002F0ECFE332002F0E9FE3320D6
:1012B00002F0E6FEB72002F0F5FE352002F0E0FE77
:1012C000BB2002F0EFFE322002F0DAFEC02002F076
:1012D000E9FE0C2002F0D4FEC22002F0E3FE012061
:1012E00002F0CEFEC32002F0DDFE102002F0C8FEA8
:1012F000C42002F0D7FE202002F0C2FEC62002F079
:10130000D1FE0F2002F0BCFED02002F0CBFEA420C4
:1013100002F0B6FEA12002F0B3FEE02002F0C2FE11
:10132000D02002F0ADFE002002F0AAFE022002F062
:10133000A7FE072002F0A4FE0A2002F0A1FE28204A
:1013400002F09EFE322002F09BFE442002F098FE46
:10135000422002F095FE062002F092FE0E2002F0DE
:101360008FFE122000E056E002F08AFE142002F008
:1013700087FE172002F084FEE12002F093FED020C9
:1013800002F07EFE002002F07BFE022002F078FEDA
:10139000072002F075FE0A2002F072FE282002F0FB
:1013A0006FFE312002F06CFE542002F069FE4720EF
:1013B00002F066FE0E2002F063FE1C2002F060FECA
:1013C000172002F05DFE1B2002F05AFE1E2002F0E4
:1013D00057FE2A2002F066FE002002F051FE002097
:1013E00002F04EFE002002F04BFEEF2002F048FE1D
:1013F0002B2002F057FE002002F042FE002002F0F7
:101400003FFE012002F03CFE3F2002F039FE292081
:1014100002F048FE22E79148808845F21031884268
:1014200040F07C87ED2002F03DFE012002F028FE16
:10143000FE2002F025FEEE2002F034FEDE2002F057
:101440001FFE212002F01CFEF12002F02BFE0120E5
:1014500002F016FEDF2002F025FE102002F010FE42
:10146000C42002F01FFE8F2002F00AFEC62002F008
:1014700019FE002002F004FEE22002F001FEE2204C
:1014800002F0FEFDE22002F0FBFDBF2002F00AFEAA
:10149000AA2002F0F5FDB02002F004FE0D2002F0BB
:1014A000EFFD002002F0ECFD0D2002F0E9FD002030
:1014B00002F0E6FD112002F0E3FD002002F0E0FD65
:1014C000192002F0DDFD002002F0DAFD212002F0FB
:1014D000D7FD002002F0D4FD2D2002F0D1FD002028
:1014E00002F0CEFD3D2002F0CBFD002002F0C8FD51
:1014F0005D2002F0C5FD002002F0C2FD5D2002F07B
:10150000BFFD002002F0BCFDB12002F0CBFD802029
:1015100002F0B6FD002002F0B3FD8B2002F0B0FD1A
:10152000002002F0ADFD962002F0AAFD002002F09E
:10153000A7FDB22002F0B6FD002002F0A1FD0020C0
:1015400002F09EFD022002F09BFD002002F098FDBB
:10155000032002F095FD002002F092FDB32002F07E
:10156000A1FD002002F08CFD002002F089FD00208A
:1015700002F086FD002002F083FD002002F080FDD5
:10158000002002F07DFD002002F07AFD002002F034
:1015900077FD002002F074FD002002F071FD0020B4
:1015A00002F06EFD002002F06BFD002002F068FDED
:1015B000002002F065FD002002F062FD002002F034
:1015C0005FFD002002F05CFD002002F059FD0020CC
:1015D00002F056FD002002F053FD002002F050FD05
:1015E000002002F04DFD002002F04AFD002002F034
:1015F00047FDB42002F056FD8B2002F041FD002093
:1016000002F03EFD962002F03BFD002002F038FD86
:10161000A12002F035FD002002F032FDB52002F0DD
:1016200041FD022002F02CFD002002F029FD0320E4
:1016300002F026FD002002F023FD042002F020FD30
:10164000002002F01DFDB62002F02CFD002002F06B
:1016500017FD002002F014FDB72001E00401002076
:1016600002F020FD002002F00BFD002002F008FD3A
:101670003F2002F005FD002002F002FD5E2002F096
:10168000FFFC002002F0FCFC642002F0F9FC0020CA
:1016900002F0F6FC8C2002F0F3FC002002F0F0FCDB
:1016A000AC2002F0EDFC002002F0EAFCDC2002F0AD
:1016B000E7FC002002F0E4FC702002F0E1FC0020D6
:1016C00002F0DEFC902002F0DBFC002002F0D8FCEF
:1016D000EB2002F0D5FC002002F0D2FCDC2002F06E
:1016E000CFFC002002F0CCFCB82002F0DBFC002094
:1016F00002F0C6FC002002F0C3FC002002F0C0FC97
:10170000002002F0BDFC002002F0BAFC002002F034
:10171000B7FC002002F0B4FC002002F0B1FCBA20BB
:1017200002F0C0FC242002F0ABFC002002F0A8FC78
:10173000002002F0A5FC002002F0A2FCC12002F073
:10174000B1FC202002F09CFC002002F099FC542007
:1017500002F096FC002002F093FCFF2002F090FCC7
:10176000002002F08DFCC22002F09CFC0A2002F056
:1017700087FC002002F084FC042002F081FC0020A1
:1017800002F07EFCC32002F08DFC3C2002F078FCCD
:10179000002002F075FC3A2002F072FC002002F0FA
:1017A0006FFC392002F06CFC002002F069FC37204D
:1017B00002F066FC002002F063FC3C2002F060FCBA
:1017C000002002F05DFC362002F05AFC002002F0FE
:1017D00057FC322002F054FC002002F051FC2F2074
:1017E00002F04EFC002002F04BFC2C2002F048FCE2
:1017F000002002F045FC292002F042FC002002F00B
:101800003FFC262002F03CFC002002F039FC2420A2
:1018100002F036FC002002F033FC242002F030FC01
:10182000002002F02DFC232002F02AFC002002F010
:1018300027FC3C2002F024FC002002F021FC362092
:1018400002F01EFC002002F01BFC322002F018FC0B
:10185000002002F015FC2F2002F012FC002002F004
:101860000FFC2C2002F00CFC002002F009FC2920C7
:1018700002F006FC002002F003FC262002F000FC2F
:10188000002002F0FDFB242002F0FAFB002002F011
:10189000F7FB242002F0F4FB002002F0F1FB2320F0
:1018A00002F0EEFB002002F0EBFBC42002F0FAFB9A
:1018B000622002F0E5FB002002F0E2FB052002F0CE
:1018C000DFFB002002F0DCFB842002F0D9FB0020CB
:1018D00002F0D6FBF02002F0D3FB002002F0D0FB98
:1018E000182002F0CDFB002002F0CAFBA42002F079
:1018F000C7FB002002F0C4FB182002F0C1FB00204F
:1019000002F0BEFB502002F0BBFB002002F0B8FB4F
:101910000C2002F0B5FB002002F0B2FB172002F011
:10192000AFFB002002F0ACFB952002F0A9FB0020E9
:1019300002F0A6FBF32002F0A3FB002002F0A0FBC4
:10194000E62002F09DFB002002F09AFBC52002F089
:10195000A9FB322002F094FB002002F091FB44200E
:1019600002F08EFB002002F08BFB652002F088FB6A
:10197000002002F085FB762002F082FB002002F0BE
:101980007FFB882002F07CFB002002F079FBC62060
:1019900002F088FB202002F073FB002002F070FBB5
:1019A000172002F06DFB002002F06AFB012002F01C
:1019B00067FB002002F064FBC72002F073FB0020ED
:1019C00002F05EFB002002F05BFB002002F058FBFF
:1019D000002002F055FBC82002F064FB002002F05A
:1019E0004FFB002002F04CFB002002F049FB0020DE
:1019F00002F046FBC92002F055FB002002F040FB3C
:101A0000002002F03DFB002002F03AFB002002F033
:101A100037FB002002F034FB002002F031FB0020F5
:101A200002F02EFB002002F02BFB002002F028FB2E
:101A3000002002F025FB002002F022FB002002F033
:101A40001FFB002002F01CFB002002F019FB00200D
:101A500002F016FB002002F013FBE02002F022FB54
:101A6000162002F00DFB002002F00AFB1C2002F001
:101A700007FB002002F004FB212002F001FB002004
:101A800002F0FEFA362002F0FBFA002002F0F8FA2B
:101A9000462002F0F5FA002002F0F2FA522002F09D
:101AA000EFFA002002F0ECFA642002F0E9FA0020DC
:101AB00002F0E6FA7A2002F0E3FA002002F0E0FAFF
:101AC0008B2002F0DDFA002002F0DAFA992002F011
:101AD000D7FA002002F0D4FAA82002F0D1FA0020B0
:101AE00002F0CEFAB92002F0CBFA002002F0C8FAD8
:101AF000C42002F0C5FA002002F0C2FACA2002F0A7
:101B0000BFFA002002F0BCFAD22002F0B9FA00209D
:101B100002F0B6FAD92002F0B3FA002002F0B0FACF
:101B2000E02002F0ADFA002002F0AAFAF32002F061
:101B3000A7FA002002F0A4FAE12002F0B3FA16207E
:101B400002F09EFA002002F09BFA1C2002F098FAA4
:101B5000002002F095FA222002F092FA002002F012
:101B60008FFA362002F08CFA002002F089FA452024
:101B700002F086FA002002F083FA522002F080FA86
:101B8000002002F07DFA642002F07AFA002002F0D0
:101B900077FA7A2002F074FA002002F071FA8B20B2
:101BA00002F06EFA002002F06BFA992002F068FA57
:101BB000002002F065FAA82002F062FA002002F08C
:101BC0005FFAB92002F05CFA002002F059FAC42052
:101BD00002F056FA002002F053FACA2002F050FA3E
:101BE000002002F04DFAD22002F04AFA002002F062
:101BF00047FAD82002F044FA002002F041FAE0202F
:101C000002F03EFA002002F03BFAF32002F038FA2C
:101C1000002002F035FAE22002F044FA052002F03A
:101C20002FFA002002F02CFA0B2002F029FA0020F3
:101C300002F026FA1B2002F023FA002002F020FA1C
:101C4000342002F01DFA002002F01AFA442002F0BB
:101C500017FA002002F014FA4F2002F011FA0020C7
:101C600002F00EFA612002F00BFA002002F008FAEE
:101C7000792002F005FA002002F002FA882002F032
:101C8000FFF9002002F0FCF9972002F0F9F900209A
:101C900002F0F6F9A62002F0F3F9002002F0F0F9C4
:101CA000B72002F0EDF9002002F0EAF9C22002F0BC
:101CB000E7F9002002F0E4F9C72002F0E1F9002082
:101CC00002F0DEF9D12002F0DBF9002002F0D8F9B1
:101CD000D62002F0D5F9002002F0D2F9DD2002F082
:101CE000CFF9002002F0CCF9F32002F0C9F900206E
:101CF00002F0C6F9E32002F0D5F9052002F0C0F9A0
:101D0000002002F0BDF90A2002F0BAF9002002F02A
:101D1000B7F91C2002F0B4F9002002F0B1F9332029
:101D200002F0AEF9002002F0ABF9442002F0A8F96D
:101D3000002002F0A5F9502002F0A2F9002002F0E4
:101D40009FF9622002F09CF9002002F099F97820B6
:101D500002F096F9002002F093F9882002F090F941
:101D6000002002F08DF9972002F08AF9002002F09D
:101D700087F9A62002F084F9002002F081F9B7204B
:101D800002F07EF9002002F07BF9C22002F078F91F
:101D9000002002F075F9C72002F072F9002002F06D
:101DA0006FF9D12002F06CF9002002F069F9D5201A
:101DB00002F066F9002002F063F9DD2002F060F91C
:101DC000002002F05DF9F32002F05AF9002002F041
:101DD00057F9E42002F066F9012002F051F90020E1
:101DE00002F04EF9012002F04BF9002002F048F910
:101DF000022002F045F9002002F042F92A2002F008
:101E00003FF9002002F03CF93C2002F039F90020B3
:101E100002F036F94B2002F033F9002002F030F9DD
:101E20005D2002F02DF9002002F02AF9742002F062
:101E300027F9002002F024F9842002F021F9002083
:101E400002F01EF9932002F01BF9002002F018F9AD
:101E5000A22002F015F9002002F012F9B32002F0DE
:101E60000FF9002002F00CF9BE2002F009F9002061
:101E700002F006F9C42002F003F9002002F000F994
:101E8000CD2002F0FDF8002002F0FAF8D32002F095
:101E9000F7F8002002F0F4F8DD2002F0F1F800205D
:101EA00002F0EEF8F32002F0EBF8002002F0E8F880
:101EB000E52002F0F7F8002002F0E2F8002002F03E
:101EC000DFF8002002F0DCF8002002F0D9F8022050
:101ED00002F0D6F8002002F0D3F8292002F0D0F862
:101EE000002002F0CDF83C2002F0CAF8002002F0F9
:101EF000C7F84B2002F0C4F8002002F0C1F85D20C2
:101F000002F0BEF8002002F0BBF8742002F0B8F82E
:101F1000002002F0B5F8842002F0B2F8002002F0B0
:101F2000AFF8932002F0ACF8002002F0A9F8A2204C
:101F300002F0A6F8002002F0A3F8B32002F0A0F807
:101F4000002002F09DF8BE2002F09AF8002002F076
:101F500097F8C42002F094F8002002F091F8CD2008
:101F600002F08EF8002002F08BF8D32002F088F8FF
:101F7000002002F085F8DC2002F082F8002002F058
:101F80007FF8F32002F07CF8002002F079F8E620D8
:101F900002F088F8112002F073F8002002F070F8C7
:101FA000342002F06DF8002002F06AF8562002F0AA
:101FB00067F8002002F064F8762002F061F8002053
:101FC00002F05EF8772002F05BF8002002F058F88B
:101FD000662002F055F8002002F052F8882002F046
:101FE0004FF8002002F04CF8992002F049F8002048
:101FF00002F046F8BB2002F043F8002002F040F85F
:10200000992002F03DF8002002F03AF8662002F034
:1020100037F8002002F034F8552002F031F80020A3
:1020200002F02EF8552002F02BF8002002F028F8DC
:10203000452002F025F8002002F022F8432002F0AB
:102040001FF8002002F01CF8442002F019F80020CC
:1020500002F016F8E72002F025F8322002F010F81E
:10206000002002F00DF8552002F00AF8002002F0DE
:1020700007F8762002F004F8002002F001F866204C
:1020800001F0FEFF002001F0FBFF672001F0F8FFE8
:10209000002001F0F5FF672001F0F2FF002001F0C1
:1020A000EFFF872001F0ECFF002001F0E9FF99200D
:1020B00001F0E6FF002001F0E3FFBB2001F0E0FFAC
:1020C000002001F0DDFF992001F0DAFF002001F08F
:1020D000D7FF772001F0D4FF002001F0D1FF44208A
:1020E00001F0CEFF002001F0CBFF562001F0C8FF29
:1020F000002001F0C5FF232001F0C2FF002001F005
:10210000BFFF332001F0BCFF002001F0B9FF4520E4
:1021100001F0B6FF002001F0B3FFE82001F0C2FF9C
:10212000002001F0ADFF002001F0AAFF992001F08E
:10213000A7FF002001F0A4FF872001F0A1FF0020ED
:1021400001F09EFF882001F09BFF002001F098FF26
:10215000772001F095FF002001F092FF662001F04A
:102160008FFF002001F08CFF882001F089FF002004
:1021700001F086FFAA2001F083FF002001F080FF1C
:10218000BB2001F07DFF002001F07AFF992001F0D3
:1021900077FF002001F074FF662001F071FF00203E
:1021A00001F06EFF552001F06BFF002001F068FF89
:1021B000552001F065FF002001F062FF442001F08E
:1021C0005FFF002001F05CFF442001F059FF002078
:1021D00001F056FF552001F053FF002001F050FFA1
:1021E000E92001F05FFFAA2001F04AFF002001F082
:1021F00047FF002001F044FF002001F041FF0020D4
:1022000001F050FFAA2001F03BFFCF2001F04AFF70
:10221000002001F035FF002001F032FF002001F026
:102220002FFF002001F02CFF002001F029FF0020EB
:1022300001F026FF002001F023FF002001F020FF25
:10224000002001F01DFF002001F01AFF002001F026
:1022500017FF002001F014FF002001F011FF002003
:1022600001F00EFF002001F00BFF002001F008FF3D
:10227000002001F005FFF02001F014FF002001F024
:10228000FFFE502001F0FCFE002001F0F9FE0020CE
:1022900001F0F6FE002001F0F3FEF32001F002FF52
:1022A000002001F0EDFEF92001F0FCFE062001F017
:1022B000E7FE102001F0E4FE292001F0E1FE0020FD
:1022C00001F0DEFE3A2001F0EDFE552001F0D8FECF
:1022D000112001F0E7FE642002F066FB292001F0E6
:1022E000E1FE352001F0DEFE002001F0C9FE5120A4
:1022F00001F0D8FEFF2001F0C3FE532001F0D2FE12
:102300002C2001F0BDFE552001F0CCFE822001F012
:10231000B7FE2C2001F0C6FE01F001BAFE4880880D
:1023200045F2105188427DD155214FF4704001F0A3
:10233000D3FEAA214FF2010001F0CEFE52214FF24E
:10234000020001F0C9FE08214FF2030001F0C4FEB3
:1023500001214FF2040001F0BFFE0D214FF4304087
:1023600001F0BAFE0D214BF2010001F0B5FE0D2186
:102370004BF2020001F0B0FE34214FF4364001F080
:10238000ABFE34214BF2016001F0A6FE34214BF28A
:10239000026001F0A1FE0D214FF4314001F09CFEDE
:1023A0000D214BF2011001F097FE0D214BF20210AE
:1023B00001F092FE34214FF4374001F08DFE3421BC
:1023C0004BF2017001F088FE34214BF2027001F0F3
:1023D00083FE00214FF4324001F07EFE00214BF2DB
:1023E000012001F079FE00214BF2022001F074FE81
:1023F00024214FF4384001F06FFE24214BF60100F8
:1024000001F06AFE24214BF6020001F065FE012175
:102410004FF43F4001F060FE0F214FF4334001F0D4
:102420005BFE00E0FDE30F214BF2013001F054FEB2
:102430000F214BF2023001F04FFE34214FF43940AE
:1024400001F04AFE34214BF6011001F045FE342123
:102450004BF6021001F040FE08214FF4354001F028
:102460003BFE08214BF2015001F036FE08214BF2F1
:10247000025001F031FE03214FF4424001F02CFEE6
:1024800024214FF43A4001F027FE24214BF601208D
:1024900001F022FE24214BF6022001F01DFE002156
:1024A0004FF43C4001F018FE78214BF6014001F05A
:1024B00013FE00214BF6024001F00EFE00214FF406
:1024C0003D4001F009FE78214BF6015001F004FE79
:1024D00000214BF6025001F0FFFD00214FF43E4079
:1024E00001F0FAFD64214BF6016001F0F5FD0021D9
:1024F0004FF4514001F0F0FD33214DF2011001F095
:10250000EBFD00214DF2021001F0E6FD34214DF209
:10251000031001F0E1FD00214DF2041001F0DCFD9B
:102520003A214DF2051001F0D7FD00214DF20610C1
:1025300001F0D2FD4A214DF2071001F0CDFD00213E
:102540004DF2081001F0C8FD5C214DF2091001F0B8
:10255000C3FD00214DF20A1001F0BEFD81214DF2B4
:102560000B1001F0B9FD00214DF20C1001F0B4FD8B
:10257000A6214DF20D1001F0AFFD00214DF20E101D
:1025800001F0AAFDE5214DF20F1001F0A5FD01219A
:102590004DF2101001F0A0FD13214DF2111001F0C9
:1025A0009BFD01214DF2121001F096FD54214DF2D8
:1025B000131001F091FD01214DF2141001F08CFD7A
:1025C00082214DF2151001F087FD01214DF2161008
:1025D00001F082FDCA214DF2171001F07DFD0221AC
:1025E0004DF2181001F078FD00214DF2191001F0A4
:1025F00073FD02214DF21A1001F06EFD01214DF222
:102600001B1001F069FD02214DF21C1001F064FD68
:1026100034214DF21D1001F05FFD02214DF21E101C
:1026200001F05AFD67214DF21F1001F055FD022106
:102630004DF2201001F050FD84214DF2211001F0E7
:102640004BFD02214DF2221001F046FDA4214DF276
:10265000231001F041FD02214DF2241001F03CFD58
:10266000B7214DF2251001F037FD02214DF2261061
:1026700001F032FDCF214DF2271001F02DFD022196
:102680004DF2281001F028FDDE214DF2291001F055
:1026900023FD02214DF22A1001F01EFDF2214DF220
:1026A0002B1001F019FD02214DF22C1001F014FD48
:1026B000FE214DF22D1001F00FFD03214DF22E10E1
:1026C00001F00AFD10214DF22F1001F005FD03214C
:1026D0004DF2301001F000FD33214DF2311001F0C8
:1026E000FBFC03214DF2321001F0F6FC6D214DF29E
:1026F000331001F0F1FC00214FF4524001F0ECFCEA
:1027000033214DF2012001F0E7FC00214DF20220BF
:1027100001F0E2FC342101E0040100204DF203202D
:1027200001F0DAFC00214DF2042001F0D5FC3A2141
:102730004DF2052001F0D0FC00214DF2062001F001
:10274000CBFC4A214DF2072001F0C6FC00214DF2DE
:10275000082001F0C1FC5C214DF2092001F0BCFC15
:1027600000214DF20A2001F0B7FC81214DF20B202F
:1027700001F0B2FC00214DF20C2001F0ADFCA621CD
:102780004DF20D2001F0A8FC00214DF20E2001F0C9
:10279000A3FCE5214DF20F2001F09EFC01214DF23A
:1027A000102001F099FC13214DF2112001F094FC4E
:1027B00001214DF2122001F08FFC54214DF2132023
:1027C00001F08AFC01214DF2142001F085FC8221E8
:1027D0004DF2152001F080FC01214DF2162001F090
:1027E0007BFCCA214DF2172001F076FC02214DF24C
:1027F000182001F071FC00214DF2192001F06CFC51
:1028000002214DF21A2001F067FC01214DF21B203C
:1028100001F062FC02214DF21C2001F05DFC34212C
:102820004DF21D2001F058FC02214DF21E2001F056
:1028300053FC67214DF21F2001F04EFC02214DF2A6
:10284000202001F049FC84214DF2212001F044FCBC
:1028500002214DF2222001F03FFCA4214DF2232061
:1028600001F03AFC02214DF2242001F035FCB721A1
:102870004DF2252001F030FC02214DF2262001F01E
:102880002BFCCF214DF2272001F026FC02214DF236
:10289000282001F021FCDE214DF2292001F01CFC52
:1028A00002214DF22A2001F017FCF2214DF22B20DB
:1028B00001F012FC02214DF22C2001F00DFCFE2152
:1028C0004DF22D2001F008FC03214DF22E2001F0E5
:1028D00003FC10214DF22F2001F0FEFB03214DF2ED
:1028E000302001F0F9FB33214DF2312001F0F4FBEF
:1028F00003214DF2322001F0EFFB6D214DF2332028
:1029000001F0EAFB00214FF4534001F0E5FB3321D5
:102910004DF2013001F0E0FB00214DF2023001F0F8
:10292000DBFB34214DF2033001F0D6FB00214DF2E8
:10293000043001F0D1FB3A214DF2053001F0CCFB1F
:1029400000214DF2063001F0C7FB4A214DF207305D
:1029500001F0C2FB00214DF2083001F0BDFB5C210B
:102960004DF2093001F0B8FB00214DF20A3001F0C0
:10297000B3FB81214DF20B3001F0AEFB00214DF293
:102980000C3001F0A9FBA6214DF20D3001F0A4FBA3
:1029900000214DF20E3001F09FFBE5214DF20F308A
:1029A00001F09AFB01214DF2103001F095FB13214B
:1029B0004DF2113001F090FB01214DF2123001F087
:1029C0008BFB54214DF2133001F086FB01214DF2B7
:1029D000143001F081FB82214DF2153001F07CFBB7
:1029E00001214DF2163001F077FBCA214DF217306C
:1029F00001F072FB02214DF2183001F06DFB002155
:102A00004DF2193001F068FB02214DF21A3001F04D
:102A100063FB01214DF21B3001F05EFB02214DF200
:102A20001C3001F059FB34214DF21D3001F054FBF4
:102A300002214DF21E3001F04FFB67214DF21F3095
:102A400001F04AFB02214DF2203001F045FB8421C8
:102A50004DF2213001F040FB02214DF2223001F015
:102A60003BFBA4214DF2233001F036FB02214DF255
:102A7000243001F031FBB7214DF2253001F02CFB61
:102A800002214DF2263001F027FBCF214DF22730F5
:102A900001F022FB02214DF2283001F01DFBDE2166
:102AA0004DF2293001F018FB02214DF22A3001F0DD
:102AB00013FBF2214DF22B3001F00EFB02214DF2FF
:102AC0002C3001F009FBFE214DF22D3001F004FB0A
:102AD00003214DF22E3001F0FFFA10214DF22F307C
:102AE00001F0FAFA03214DF2303001F0F5FA33210A
:102AF0004DF2313001F0F0FA03214DF2323001F0A5
:102B0000EBFA6D214DF2333001F0E6FA00214FF47B
:102B1000544001F0E1FA33214DF2014001F0DCFABA
:102B200000214DF2024001F0D7FA34214DF203406A
:102B300001F0D2FA00214DF2044001F0CDFA3A2121
:102B40004DF2054001F0C8FA00214DF2064001F0B7
:102B5000C3FA4A214DF2074001F0BEFA00214DF2BE
:102B6000084001F0B9FA5C214DF2094001F0B4FAD5
:102B700000214DF20A4001F0AFFA81214DF20B40E5
:102B800001F0AAFA00214DF20C4001F0A5FAA621AD
:102B90004DF20D4001F0A0FA00214DF20E4001F07F
:102BA0009BFAE5214DF20F4001F096FA01214DF21A
:102BB000104001F091FA13214DF2114001F08CFA0E
:102BC00001214DF2124001F087FA54214DF21340D9
:102BD00001F082FA01214DF2144001F07DFA8221C8
:102BE0004DF2154001F078FA01214DF2164001F046
:102BF00073FACA214DF2174001F06EFA02214DF22C
:102C0000184001F069FA00214DF2194001F064FA10
:102C100002214DF21A4001F05FFA01214DF21B40F2
:102C200000E005E301F058FA02214DF21C4001F0EA
:102C300053FA34214DF21D4001F04EFA02214DF2BB
:102C40001E4001F049FA67214DF21F4001F044FA9D
:102C500002214DF2204001F03FFA84214DF2214043
:102C600001F03AFA02214DF2224001F035FAA42196
:102C70004DF2234001F030FA02214DF2244001F0E0
:102C80002BFAB7214DF2254001F026FA02214DF230
:102C9000264001F021FACF214DF2274001F01CFA25
:102CA00002214DF2284001F017FADE214DF22940B1
:102CB00001F012FA02214DF22A4001F00DFAF22140
:102CC0004DF22B4001F008FA02214DF22C4001F0A8
:102CD00003FAFE214DF22D4001F0FEF903214DF2E1
:102CE0002E4001F0F9F910214DF22F4001F0F4F9D6
:102CF00003214DF2304001F0EFF933214DF2314024
:102D000001F0EAF903214DF2324001F0E5F96D21BD
:102D10004DF2334001F0E0F900214FF4554001F04D
:102D2000DBF933214DF2015001F0D6F900214DF2CB
:102D3000025001F0D1F934214DF2035001F0CCF9E9
:102D400000214DF2045001F0C7F93A214DF205502F
:102D500001F0C2F900214DF2065001F0BDF94A21FF
:102D60004DF2075001F0B8F900214DF2085001F082
:102D7000B3F95C214DF2095001F0AEF900214DF29A
:102D80000A5001F0A9F981214DF20B5001F0A4F98C
:102D900000214DF20C5001F09FF9A6214DF20D508B
:102DA00001F09AF900214DF20E5001F095F9E5215C
:102DB0004DF20F5001F090F901214DF2105001F049
:102DC0008BF913214DF2115001F086F901214DF2DA
:102DD000125001F081F954214DF2135001F07CF9A9
:102DE00001214DF2145001F077F982214DF2155076
:102DF00001F072F901214DF2165001F06DF9CA216E
:102E00004DF2175001F068F902214DF2185001F00F
:102E100063F900214DF2195001F05EF902214DF2E3
:102E20001A5001F059F901214DF21B5001F054F9EB
:102E300002214DF21C5001F04FF934214DF21D508A
:102E400001F04AF902214DF21E5001F045F96721C7
:102E50004DF21F5001F040F902214DF2205001F0D7
:102E60003BF984214DF2215001F036F902214DF257
:102E7000225001F031F9A4214DF2235001F02CF938
:102E800002214DF2245001F027F9B7214DF22550CF
:102E900001F022F902214DF2265001F01DF9CF2157
:102EA0004DF2275001F018F902214DF2285001F09F
:102EB00013F9DE214DF2295001F00EF902214DF2F5
:102EC0002A5001F009F9F2214DF22B5001F004F9DA
:102ED00002214DF22C5001F0FFF8FE214DF22D5051
:102EE00001F0FAF803214DF22E5001F0F5F810210F
:102EF0004DF22F5001F0F0F803214DF2305001F067
:102F0000EBF833214DF2315001F0E6F803214DF298
:102F1000325001F0E1F86D214DF2335001F0DCF850
:102F200000214FF4564001F0D7F833214DF20160F3
:102F300001F0D2F800214DF2026001F0CDF8342109
:102F40004DF2036001F0C8F800214DF2046001F079
:102F5000C3F83A214DF2056001F0BEF800214DF2B0
:102F6000066001F0B9F84A214DF2076001F0B4F8AB
:102F700000214DF2086001F0AFF85C214DF20960CC
:102F800001F0AAF800214DF20A6001F0A5F88121B4
:102F90004DF20B6001F0A0F800214DF20C6001F041
:102FA0009BF8A6214DF20D6001F096F800214DF23C
:102FB0000E6001F091F8E5214DF20F6001F08CF800
:102FC00001214DF2106001F087F813214DF21160DC
:102FD00001F082F801214DF2126001F07DF85421D8
:102FE0004DF2136001F078F801214DF2146001F008
:102FF00073F882214DF2156001F06EF801214DF257
:10300000166001F069F8CA214DF2176001F064F80A
:1030100002214DF2186001F05FF800214DF21960B5
:1030200001F05AF802214DF21A6001F055F8012121
:103030004DF21B6001F050F802214DF21C6001F0CE
:103040004BF834214DF21D6001F046F802214DF29B
:103050001E6001F041F867214DF21F6001F03CF85D
:1030600002214DF2206001F037F884214DF22160F9
:1030700001F032F802214DF2226001F02DF8A42176
:103080004DF2236001F028F802214DF2246001F096
:1030900023F8B7214DF2256001F01EF802214DF210
:1030A000266001F019F8CF214DF2276001F014F8E5
:1030B00002214DF2286001F00FF8DE214DF2296067
:1030C00001F00AF802214DF22A6001F005F8F22120
:1030D0004DF22B6001F000F802214DF22C6000F05F
:1030E000FBFFFE214DF22D6000F0F6FF03214DF2B3
:1030F0002E6000F0F1FF10214DF22F6000F0ECFF88
:1031000003214DF2306000F0E7FF33214DF23160D2
:1031100000F0E2FF03214DF2326000F0DDFF6D218F
:103120004DF2336000F0D8FF55214FF4704000F0AD
:10313000D3FFAA214FF2010000F0CEFF52214FF23F
:10314000020000F0C9FF08214FF2030000F0C4FFA5
:1031500000214FF2040000F0BFFFCC214FF43140BA
:1031600000F0BAFF00214BF2011000F0B5FF05217D
:103170004FF4364000F0B0FF70214FF4374000F0BC
:10318000ABFF70214BF2017000F0A6FF01214FF45C
:10319000384000F0A1FF03214BF6010000F09CFF36
:1031A00003214BF6020000F097FF03214BF60300CA
:1031B00000F092FF02214FF43C4000F08DFF00210F
:1031C0004BF6014000F088FF00214BF6024000F072
:1031D00083FFD0214FF4494000F07EFF02214CF6DE
:1031E000011000F079FF50214CF6021000F074FF3E
:1031F00050214CF6031000F06FFF50214CF60410E4
:1032000000F06AFF00214FF4545000F065FF552193
:103210004FF4685000F060FF4FF4885000F042FF18
:10322000782001F0E7FB4FF4245000F03BFF76E2FA
:10323000FE48808841F663118842F8D1E22000F010
:1032400031FF4FF48070FA490861400048611D2049
:10325000F84908608020F6494861086180000861EB
:1032600040100861400048610220F2490860802057
:10327000EF49486108618000086140100861400022
:1032800048610420EB4908608020E94948610861F1
:1032900080000861642001F0ADFBE02000F002FF37
:1032A0004FF48070E2490861400048610120E14923
:1032B00008608020DE4948610861800008610A20BA
:1032C00001F072FBE02000F0EDFE4FF48070D84971
:1032D0000861400048610320D64908608020D44935
:1032E00048610861800008610C2001F05DFB01204D
:1032F00000F0D8FE0A2001F057FBE62000F0D2FED5
:103300004FF48070CA490861400048612F20C949C4
:1033100008608020C649486108618000086140104B
:10332000086140004861FF20C24908608020C04910
:1033300048610861800008614010086140004861F0
:10334000FF20BC4908608020B949486108618000BD
:103350000861B02000F0A6FE4FF48070B449086107
:10336000400048612020B34908608020B04948618E
:103370000861800008614010086140004861002039
:10338000AC4908608020AA49486108618000086152
:1033900040100861400048610320A6490860802071
:1033A000A34948610861800008614010086140003D
:1033B000486140F21F309F49086080209C49486165
:1033C00008618000086140100861400048610120E8
:1033D000984908608020964948610861800008612A
:1033E000401008614000486140F2DF1091490860D8
:1033F00080208F49486108618000086140100861A1
:103400004000486100208B4908608020884948615D
:10341000086180000861B42000F044FE4FF4807021
:103420008349086140004861042082490860802087
:103430007F494861086180000861401008614000D0
:10344000486140F21F407B4908608020784948610C
:103450000861800008614010086140004861002058
:1034600074490860802072494861086180000861E1
:1034700040100861400048612E206E49086080209D
:103480006B49486108618000086140100861400094
:1034900048610020674908608020654948610861EB
:1034A00080000861401008614000486100206149C7
:1034B000086080205E494861086180000861401012
:1034C00008614000486100205A490860802058493E
:1034D000486108618000086140100861400048614F
:1034E00000205449086080205149486108618000EB
:1034F0000861B62000F0D6FD4FF480704C49086199
:103500004000486102204B490860802048494861DA
:1035100008618000086140100861400048614FF474
:103520000370444908608020414948610861800077
:103530000861401008614000486100203D49086072
:1035400080203B49486108618000086140100861A3
:10355000400048611720374908608020344948619D
:103560000861800008614010086140004861152032
:103570003049086080202E49486108618000086158
:10358000401008614000486100202A4908608020FE
:1035900027494861086180000861401008614000C7
:1035A0004861002023490860802021494861086162
:1035B00080000861F02000F075FD4FF480701C4918
:1035C00008614000486103201A49086080201849BA
:1035D0004861086180000861292000F063FDD02067
:1035E00000F060FD4FF480701149086140004861AF
:1035F00000201049086080200D4948610861800062
:103600000861BE2000F04EFD4FF48070084908614B
:10361000400048610520074908608020044948614E
:103620000861800008614010086105E00401002085
:10363000001001400C0C014040004861FE203D4953
:10364000086080203C4948610861800008614010A2
:1036500008614000486101203649086080203649F1
:1036600048610861800008614010086140004861BD
:1036700000203049086080202F494861086180009F
:103680000861401008614000486100202949086035
:103690008020294948610861800008614010086164
:1036A0004000486100202349086080202249486189
:1036B000086180000861B82000F0F4FC4FF48070CD
:1036C0001D4908614000486103201A4908608020B4
:1036D0001949486108618000086140100861400094
:1036E000486101201349086080201349486108613E
:1036F00080000861BA2000F0D5FC4FF480700E49BC
:1037000008614000486101200A49086080200A4998
:103710004861086180000861642000F041F80020E1
:10372000FDF784F90120054908604FF6FF70FDF7A9
:1037300057F908BD0C0C014000100140A8012242BD
:1037400000B54FF0883014490860091D086000205A
:1037500011490C3108608815104908614000486122
:1037600040204861022001F0E3F90B48083000686E
:1037700083B2402009490861C00008614FF033302E
:1037800005490860091D08604FF6FF7002490C31B9
:103790000860184600BD0000000C01400010014008
:1037A0002DE9F0410446BE2000F07CFC4FF480700F
:1037B0002D4908614000486105202C49086080209F
:1037C0002949486108618000086140100861400093
:1037D00048612046FCF75BFD05464FF06632244BFE
:1037E000FCF7DEFC0746FCF773FD204908608020EB
:1037F0001D4948610861800008614010086140006F
:103800004861012019490860802017494861086112
:10381000800008614010086140004861FF201349A2
:1038200008608020104948610861800008614010EC
:1038300008614000486100200C49086080200A4966
:1038400048610861800008614010086140004861DB
:103850000020064908608020034948610861800013
:103860000861BDE8F0810000001001400C0C01402F
:1038700066660440F0B5054600240027E2488079DA
:10388000012805D1E048808841F66311884208D1BB
:10389000DD488079F0B9DC48808841F663118842C0
:1038A00018D1082D15D2DFE805F00406080A0C0E21
:1038B000101206250DE007250BE0042509E005257B
:1038C00007E0012505E0002503E0032501E00225CE
:1038D00000BF00BF082D1CD2DFE805F00406090C6C
:1038E0000F12151800BF14E044F0800411E044F0FA
:1038F00040040EE044F0C0040BE044F0200408E073
:1039000044F0600405E044F0A00402E044F0E00468
:1039100000BF00BFBC48808845F21051884202D1E8
:103920004FF4585700E03627B748808849F24131B4
:10393000884205D0B448808847F28971884201D115
:1039400044F008042146384600F0C6FBAE488088A3
:1039500041F6631188421DD004F0200068B1AA48E6
:103960000088A9494988884214DAA748068840880F
:10397000A5490880084646800CE0A3480088A24973
:103980004988884206DDA048068840889E4908800C
:10399000084646809C48808845F2105188427DD177
:1039A0009949488900F07EFB4FF48070974908617F
:1039B0004000486100209649086080209349486192
:1039C00008618000086190494989491C88B200F06B
:1039D00069FB4FF480708D49086140004861002008
:1039E0008B4908608020894948610861800008612E
:1039F00085494989891C88B200F054FB4FF48070D6
:103A000082490861400048617F480088401E0012DA
:103A10007F49086080207D49486108618000086115
:103A200079494989C91C88B200F03CFB4FF4807089
:103A3000764908614000486173480078401EC0B272
:103A400073490860802071494861086180000861FD
:103A50006D49888900F026FB4FF480706B4908613E
:103A60004000486100206A49086080206749486139
:103A700008618000086164498989491C88B200F0A6
:103A800011FB4FF4807061490861400048610020DB
:103A90005F49086080205D49486100E033E00861CB
:103AA0008000086158498989891C88B200F0FAFAB7
:103AB0004FF4807055490861400048615248408881
:103AC000401E001252490860802050494861086138
:103AD000800008614C498989C91C88B200F0E2FA6B
:103AE0004FF4807049490861400048614648807839
:103AF000401EC0B2464908608020444948610861C0
:103B0000800008617FE04049488900F0CBFA4FF41B
:103B100080703E4908614000486100203C490860CF
:103B200080203A49486108618000086140100861BE
:103B300040004861002036490860802033494861D0
:103B400008618000086140100861400048612E480B
:103B50000088401E00122E49086080202B494861D1
:103B600008618000086140100861400048612648F3
:103B70000078401EC0B22649086080202349486171
:103B80000861800008612049888900F08BFA4FF4B1
:103B900080701E4908614000486100201C4908608F
:103BA00080201A494861086180000861401008615E
:103BB0004000486100201649086080201349486190
:103BC00008618000086140100861400048610E48AB
:103BD0004088401E00120E49086080200B49486151
:103BE0000861800008614010086140004861064893
:103BF0008078401EC0B206490860802003494861B1
:103C0000086180000861F0BD04010020001001403F
:103C10000C0C014010B503460C46B248808841F6B2
:103C2000631188427ED1AF48807900283FD1AD48EA
:103C30000088401EC01A83B2AA49488900F032FAAF
:103C40004FF48070A8490861400048610020A749EE
:103C500008608020A4494861086180000861401024
:103C60000861400048610020A049086080209E490A
:103C700048610861800008614010086140004861A7
:103C800018129A49086080209749486108618000AD
:103C900008614010086140004861D8B2934908604B
:103CA00080209149486108618000086141E08D49A8
:103CB000488900F0F7F94FF480708B4908614000A3
:103CC0004861181289490860802087494861086165
:103CD000800008614010086140004861D8B2834903
:103CE00008608020804948610861800008614010B8
:103CF0000861400048617B480088401E00127B49F3
:103D0000086080207849486108618000086140109F
:103D100008614000486173480078401EC0B2734992
:103D2000086000E046E080206F494861086180003B
:103D300008616C49888900F0B5F94FF480706A49D0
:103D40000861400048612012684908608020664987
:103D500048610861800008614010086140004861C6
:103D6000E0B26249086080205F49486108618000D4
:103D7000086140100861400048615A484088401E70
:103D800000125A4908608020574948610861800044
:103D90000861401008614000486152488078401E28
:103DA000C0B25249086080204F49486108618000D4
:103DB000086196E04B48808845F21051884250D106
:103DC0004849488900F06EF94FF48070464908610F
:103DD0004000486118124549086080204249486106
:103DE0000861800008613F494989491C88B200F098
:103DF00059F94FF480703C49086140004861D8B2DD
:103E00003A490860802038494861086180000861AB
:103E10003449888900F046F94FF4807032490861CE
:103E20004000486120123149086080202E494861D5
:103E30000861800008612B498989491C88B200F01B
:103E400031F94FF480702849086140004861E0B2C0
:103E50002649086080202449486108618000086183
:103E60003FE02049488900F01DF94FF480701E4959
:103E700008614000486118121C49086080201A49F6
:103E80004861086180000861401008614000486195
:103E9000D8B2164908608020134948610861800043
:103EA00008611049888900F0FDF84FF480700E49D0
:103EB00008614000486120120C49086080200A49CE
:103EC0004861086180000861401008614000486155
:103ED000E0B206490860802003494861086180001B
:103EE000086110BD04010020001001400C0C0140CD
:103EF0002DE9F84F80460E4617461C46B34620462D
:103F0000E31704EB5373DB1021464FEAE47C04EB28
:103F10005C7C4FEAEC0CA4EBCC0CBCF1000F02D0A3
:103F20004FF0010C01E04FF0000C6344224604EB1B
:103F3000D27C4FEA6C0C03FB0CF3DBB20093A7F1CD
:103F40002000C7B2002556E00C2C07D107EB470034
:103F50002B4901EB800010F8059013E0102C05D1DF
:103F6000284800EB071010F805900BE0182C07D13B
:103F700007EBC700244901EB800010F8059001E031
:103F8000BDE8F88F4FF0000A2FE009F0800030B153
:103F90001E48028831464046FCF7E0FD07E00A98DB
:103FA00028B91B48028831464046FCF7D7FD4FEA46
:103FB00049604FEA1069701C86B216484088B042CA
:103FC00000DCDDE7A6EB0B00A0420AD15E4608F15B
:103FD00001001FFA80F80F480088404500DCCFE759
:103FE00006E00AF1010000F0FF0ABAF1080FCCDB8D
:103FF00000BF681CC5B200988542A5DB00BFBFE7C3
:10400000E04B0008545000084456000838000020D7
:104010003A000020040100202DE9F84704460D462F
:1040200090469946DDE9096704F0FF0A08EB0400B1
:104030001FFA80F809EB05001FFA80F916E04445E5
:1040400002DB5446A81985B24D4500DB14E0002080
:1040500000903A78334629462046FFF749FF30461C
:1040600006EBD07104EB61018CB27F1C38787E289E
:1040700002DC38782028E2DA00BFBDE8F8870000CB
:104080004FF48071054A116149005161044908608B
:104090008021516111618900116170470010014058
:1040A0000C0C01404FF48071054A51614900516187
:1040B00004490860802151611161890011617047D4
:1040C000001001400C0C014000B502490889FFF7BF
:1040D000E9FF00BD0401002010B504460B46204650
:1040E000FFF7E0FF4FF48070054908614000486128
:1040F000044803608020486108618000086110BDA9
:10410000001001400C0C014000BFFEE770470000AA
:1041100070B5002100230F22C47804B3154C246825
:1041200004F4E064C4F5E064210AC1F10403CA4068
:10413000447804FA03F184781440214309010E4CB9
:104140000678A155047804F01F050124AC400578D9
:104150006D11AD0005F1E025C5F8004109E00478D6
:1041600004F01F050124AC40044D0678761145F893
:10417000264070BD0CED00E000E400E080E100E0CE
:104180007047000001460020034A506820F4404078
:1041900008435060704700000010024029B1064AF1
:1041A00092690243044B9A6104E0034A9269824394
:1041B000014B9A61704700000010024030B50021A9
:1041C0000022002400232D4D6D6805F00C0121B163
:1041D000042905D0082923D105E0294D056022E0F6
:1041E000274D05601FE0254D6D6805F47012234DC5
:1041F0006D6805F48034022505EB92421CB9214D0F
:10420000554305600BE01D4D6D6805F400351DB18B
:104210001C4D5543056002E0194D5543056002E011
:10422000174D056000BF00BF144D6D6805F0F0012B
:104230000909154D6B5C0568DD4045600F4D6D68E3
:1042400005F4E061090A104D6B5C4568DD4085604E
:104250000A4D6D6805F46051C90A0B4D6B5C4568E9
:10426000DD40C560054D6D6805F44041890B074D83
:104270006B5CC568B5FBF3F5056130BD001002400D
:1042800000127A0000093D001400002024000020E4
:10429000704710B500F002F810BD00000CB500200A
:1042A000019000903348006840F480303149086044
:1042B00000BF3048006800F4003000900198401CB6
:1042C0000190009818B90198B0F5A06FF1D1294874
:1042D000006800F4003010B10120009001E00020DF
:1042E00000900098012843D12348006840F0100056
:1042F000214908600846006820F007000860084669
:10430000006840F0020008601A4840681949486097
:104310000846406848600846406840F4806048604D
:104320000846406820F47C1048600846406840F425
:10433000E81048600846006840F08070086000BFE0
:104340000C48006800F000700028F9D00948406867
:1043500020F00300074948600846406840F002002A
:10436000486000BF0348406800F00C000828F9D1FD
:104370000CBD00000010024000200240042808D1BB
:104380004FF0E021096941F004014FF0E022116192
:1043900007E04FF0E021096921F004014FF0E0222D
:1043A000116170477047000010B51348006840F075
:1043B00001001149086008464068104908400E494C
:1043C0004860084600680E4908400B4908600846E6
:1043D000006820F4802008600846406820F4FE0051
:1043E00048604FF41F008860FFF753FF4FF00060F4
:1043F0000449086010BD0000001002400000FFF8F2
:10440000FFFFF6FE08ED00E010B540F225511D4813
:1044100000F04AF810B31B4800F002F9C4B21A4881
:10442000008800F40040C8B91748008800F48040B4
:1044300060B10A2C03D000201349088020E0124804
:10444000008840F400401049088019E00D2C06D186
:104450000D48008840F480400B49088010E00A486D
:104460000088C0F30D0009490C5407480088401C1F
:104470000549088008460088C72801DD002008801B
:1044800010BD0000003801402C0000203C0000203E
:1044900021B1828942F40052828104E082894DF682
:1044A000FF731A408281704770B5024600240023D2
:1044B0000025002040F66A16B14200D100BFC1F3CA
:1044C000421501F01F03012606FA03F3012D02D164
:1044D0009689334006E0022D02D1168A334001E06E
:1044E000968A33400C12012606FA04F416883440EA
:1044F00013B10CB1012000E0002070BDF0B50346FF
:10450000002400260025002040F66A17B94200D199
:1045100000BF1846C1F3421401F01F06012707FA35
:1045200006F5012C01D10C3004E0022C01D1103031
:1045300000E014301AB107682F43076002E00768F3
:10454000AF430760F0BD00002DE9F04786B0054697
:104550000E460024A24600BFA1460027B08900B144
:1045600000BF2F462C8A4CF6FF700440F0880443AD
:104570002C82AC894EF6F3100440B0883189084390
:10458000718908430443AC81AC8A4FF6FF40044074
:10459000B0890443AC8201A8FFF710FE1F48874290
:1045A00002D1DDF810A001E0DDF80CA0A88900F42C
:1045B000004040B10AEBCA0000EB0A103168490024
:1045C000B0FBF1F807E00AEBCA0000EB0A10316813
:1045D0008900B0FBF1F86420B8FBF0F00401200979
:1045E000642101FB1089A88900F4004040B1322009
:1045F00000EBC900B0FBF1F000F00700044308E055
:10460000322000EB09106421B0FBF1F000F00F0044
:1046100004432C8106B0BDE8F0870000003801405B
:1046200001468888C0F30800704700BFFEE700001D
:104630000FB4054B10B503A9044A029800F02CF8FA
:1046400010BC5DF814FB0000414A0008280000205F
:104650000FB4084B10B504A902AA039800F01CF887
:10466000044602A9002000F077F9204610BC5DF84E
:1046700014FB00005949000802E008C8121F08C1D5
:10468000002AFAD170477047002001E001C1121FD3
:10469000002AFBD1704700002DE9FF4F8DB09B46EB
:1046A0000F460446002606E025280BD05A460F99EF
:1046B0009047641C761C20780028F5D111B0304654
:1046C000BDE8F08F0025A8460122984900E0054387
:1046D00014F8013F203B02FA03F00842F7D120789A
:1046E0002E2817D114F8010F45F004052A280ED002
:1046F0006FF02F022078A0F1300109290AD808EBC9
:10470000880102EB410100EB0108641CF2E757F855
:10471000048B641C20786C280DD004DC4C2812D04B
:104720006A2811D104E074280DD07A280CD10AE04F
:1047300045F4001507E0617845F48015814202D107
:10474000641C05F58015641C2278692A45D008DCB4
:10475000002AB3D0582A69D0632A10D0642A08D11D
:104760003BE0702A67D0732A13D0752A5CD0782A70
:104770005CD010465A460F999047761CD3E017F844
:10478000040B8DF8000000208DF80100E94601209F
:1047900003E057F8049B4FF0FF3069074FF0000526
:1047A00001D40AE06D1C45450DDA8542FADB19F8A3
:1047B00005100029F6D106E06D1C8542FCDB19F8D6
:1047C00005100029F8D12E4404E019F8010B5A46CF
:1047D0000F9990476D1EF8D2A5E00A200021CDE97F
:1047E0000801C5F3025002280DD001CFC117031EE6
:1047F00071F100030DDA4FF0000CD0EB0C006CEB04
:1048000001012D2308E0FF1D27F00707F7E802014B
:10481000EDE72B0504D52B238DF8283001233BE051
:10482000EB0739D02023F7E70A2000E01020002111
:10483000CDE9080107E01020002145F00405CDE98D
:1048400008014FF00808C5F3025002280FD001CF2D
:1048500000214FF0000A2B071FD5702A0DD0DDE98B
:1048600008C38CF0100C5CEA030C0CD015E0FF1DA3
:1048700027F00707F7E80201EBE740228DF8282030
:104880004FF0010A0BE050EA010306D030238DF807
:1048900028308DF8292002239A46582A04D024A2D1
:1048A0000DF120090B9209E026A2F9E7DDE90823C2
:1048B000FBF756FD0B9B9B5C09F8013D50EA01029A
:1048C000F4D1ADEB090020300890680701D44FF017
:1048D00001080899884502DDA8EB010000E00020EE
:1048E0008046002506E00AA85A46405D0F99904789
:1048F0006D1C761C5545F6DB04E030205A460F99B6
:104900009047761CB8F10001A8F10108F5DC05E03C
:1049100019F8010B5A460F999047761C0899481EC2
:1049200008900029F4DC641CC5E600000928010099
:104930003031323334353637383961626364656615
:1049400000000000303132333435363738394142D7
:1049500043444546000000000A68531C0B60107079
:104960007047000010B56FF00400FFF707FD0A481C
:1049700000680A49B0FBF1F0094908700846007860
:1049800000EB4001C1EBC0104FF6FF7101EAC0001F
:104990000449088010BD00000000002000127A00C9
:1049A0002E000020300000200146114A12884A43A0
:1049B0004FF0E0235A6100229A611A46126942F0D0
:1049C00001021A6100BF4FF0E022106900F00102FD
:1049D0001AB100F48032002AF5D04FF0E0221269BB
:1049E00022F001024FF0E0231A6100229A61704721
:1049F000300000200146114A12784A434FF0E0236C
:104A00005A6100229A611A46126942F001021A6143
:104A100000BF4FF0E022106900F001021AB100F46B
:104A20008032002AF5D04FF0E022126922F0010214
:104A30004FF0E0231A6100229A6170472E00002097
:104A400000BF054A128802F04002002AF9D0C2B223
:104A5000014B1B1D1A8070470038014088B0FFF7DA
:104A600081FF4FF4165000F06BF8FCF7B9F9FBF733
:104A700047FE4FF6FF70FBF7B3FF4FF47840234932
:104A8000088023A018210B46C822CDE90010282158
:104A90001E20FFF7C1FA38E0FBF720FE82465046A1
:104AA000FBF7F0FB83461B49FBF73CFB8146FBF71A
:104AB00028FC07464FF06632174BFBF771FB0546A3
:104AC000FBF732FC0446524614A103A8FFF7C0FDD1
:104AD00003A810210B46C822CDE900106E211E202C
:104AE000FFF79AFA2046FBF7DFFB85B22A460DA1B5
:104AF00003A8FFF7ADFD03A810210B46C822CDE99E
:104B0000001082211E20FFF787FAC5E73800002039
:104B10004144430000F07F4566660A404144433A01
:104B200020256400766F6C746167653A2025640007
:104B300000BF011EA0F10102D0B2FAD170470000FF
:104B400010B586B00446012144F20400FFF726FBAD
:104B50004FF40070ADF8140003208DF816001820F3
:104B60008DF8170005A91C48FBF762FE4FF4806022
:104B7000ADF8140004208DF8170005A91648FBF7BE
:104B800057FE25208DF8000003208DF801008DF8D8
:104B9000020001208DF803006846FFF7B9FA01947E
:104BA0000020ADF80800ADF80A00ADF80C00ADF833
:104BB00010000C20ADF80E0001A90848FFF7C4FC56
:104BC000012240F225510548FFF798FC01210348D6
:104BD000FFF75EFC06B010BD000801400038014040
:104BE00000000000000000000000000000000000C5
:104BF0003F40000000000000000030004000300096
:104C00004000000009000BC03D000BC03D00090042
:104C100018C024407FE0224031800000180024C0EA
:104C20001B000D803240018003801C4027401C8007
:104C3000074000401000600000000000000000007D
:104C40000000000000001F802040402000004020A5
:104C500020401F8000000000090006001F800600A1
:104C600009000000040004003F800400040000006C
:104C700000100060000000000000000004000400BC
:104C800004000400040000000000004000000000D8
:104C900000000000002001C00600380040000000B5
:104CA0001F802040204020401F8000000000104056
:104CB0003FC000400000000018C0214022402440B6
:104CC0001840000010802040244024401B80000039
:104CD00002000D0011003FC0014000003C80244054
:104CE00024402440238000001F802440244034407E
:104CF000038000003000200027C0380020000000A2
:104D00001B802440244024401B8000001C0022C043
:104D1000224022401F8000000000000008400000E8
:104D2000000000000000000004600000000000001F
:104D3000000004000A001100208040400900090022
:104D40000900090009000000000040402080110017
:104D50000A0004001800200023402400180000006E
:104D60001F802040274029401F400000004007C00E
:104D700039000F0001C0004020403FC024402440C3
:104D80001B8000001F802040204020403080000019
:104D900020403FC0204020401F80000020403FC0F6
:104DA00024402E4030C0000020403FC024402E0050
:104DB000300000000F0010802040224033800200AD
:104DC00020403FC0040004003FC02040204020405D
:104DD0003FC02040204000000060202020203FC035
:104DE0002000200020403FC024400B0030C0204065
:104DF00020403FC020400040004000C03FC03C0079
:104E000003C03C003FC0000020403FC00C402300D6
:104E10003FC020001F802040204020401F80000015
:104E200020403FC024402400180000001F80214083
:104E3000214020E01FA0000020403FC02440260069
:104E400019C0004018C02440244022403180000096
:104E5000300020403FC020403000000020003F8054
:104E6000004000403F80200020003E0001C00700BD
:104E700038002000380007C03C0007C038000000A0
:104E8000204039C0060039C02040000020003840D2
:104E900007C0384020000000304021C02640384084
:104EA00020C00000000000007FE040204020000003
:104EB000000070000C000380004000000000402053
:104EC00040207FE0000000000000200040002000A3
:104ED0000000000000100010001000100010001072
:104EE0000000000040000000000000000000028000
:104EF0000540054003C0004020003FC0044004407E
:104F000003800000000003800440044006400000CD
:104F100000000380044024403FC0004000000380A4
:104F20000540054003400000000004401FC024402D
:104F300024402000000002E00550055006500420E7
:104F400020403FC00440040003C000400000044073
:104F500027C000400000000000100010041027E0EF
:104F60000000000020403FC00140070004C0044092
:104F7000204020403FC000400040000007C0040027
:104F800007C0040003C00000044007C00440040040
:104F900003C0004000000380044004400380000080
:104FA000041007F004500440038000000000038058
:104FB0000440045007F00010044007C00240040001
:104FC00004000000000006400540054004C0000049
:104FD000000004001F80044000400000040007801F
:104FE0000040044007C000400400070004C00180E6
:104FF00006000400060001C0070001C00600000012
:10500000044006C0010006C0044000000410071060
:1050100004E00180060004000000044005C00640D2
:10502000044000000000000004007BE0402000007D
:10503000000000000000FFF0000000000000402021
:105040007BE00400000000004000800040002000E1
:1050500020004000000000000000000000000000F0
:10506000000000000000000000001FCC000C000049
:105070000000000000000800300060000800300060
:1050800060000000022003FC1E20022003FC1E2002
:105090000220000000000E1811043FFF10840C785D
:1050A000000000000F0010840F3800C0077818843B
:1050B0000078000000780F8410C411240E9800E4DA
:1050C0000084000808006800700000000000000074
:1050D0000000000000000000000007E01818200495
:1050E00040020000000040022004181807E0000001
:1050F000000000000240024001800FF001800240E9
:10510000024000000080008000800FF800800080D6
:10511000008000000001000D000E000000000000F3
:1051200000000000000000800080008000800080FF
:10513000008000800000000C000C00000000000057
:10514000000000000000000600180060018006005A
:1051500018002000000007F00808100410040808D8
:1051600007F000000000080408041FFC000400040D
:105170000000000000000E0C1014102410441184D4
:105180000E0C000000000C18100411041104128809
:105190000C700000000000E00320042408241FFC21
:1051A0000024000000001F981084110411041088CE
:1051B00010700000000007F008881104110418881E
:1051C0000070000000001C00100010FC13001C0008
:1051D0001000000000000E381144108410841144A7
:1051E0000E38000000000700088C104410440888A6
:1051F00007F00000000000000000030C030C00009A
:105200000000000000000000000101060000000096
:105210000000000000000080014002200410080887
:10522000100400000220022002200220022002209E
:1052300002200000000010040808041002200140B1
:105240000080000000000E001200100C106C108096
:105250000F00000003E00C1813E4142417C40828FE
:1052600007D000000004003C03C41C40074000E4D9
:10527000001C000410041FFC1104110411040E880A
:105280000070000003E00C18100410041004100853
:105290001C10000010041FFC100410041004080867
:1052A00007F0000010041FFC1104110417C41004BF
:1052B0000818000010041FFC1104110017C0100092
:1052C0000800000003E00C181004100410441C78BF
:1052D0000040000010041FFC108400800080108437
:1052E0001FFC10040000100410041FFC1004100424
:1052F0000000000000030001100110011FFE10005B
:105300001000000010041FFC110403801464181C1A
:105310001004000010041FFC10040004000400042A
:10532000000C000010041FFC1F0000FC1F001FFCED
:105330001004000010041FFC0C04030000E010180F
:105340001FFC100007F008081004100410040808DF
:1053500007F0000010041FFC1084108010801080E3
:105360000F00000007F0081810241024101C080A71
:1053700007F2000010041FFC1104110011C01130CD
:105380000E0C000400000E1C110410841084104444
:105390001C3800001800100010041FFC100410003E
:1053A0001800000010001FF810040004000410048E
:1053B0001FF8100010001E0011E0001C0070138088
:1053C0001C0010001FC0103C00E01F0000E0103C5B
:1053D0001FC000001004180C163401C001C01634A0
:1053E000180C100410001C00130400FC13041C0013
:1053F000100000000804101C1064108413041C0426
:10540000101800000000000000007FFE4002400273
:1054100040020000000030000C0003800060001C0F
:105420000003000000004002400240027FFE000036
:10543000000000000000000020004000400040008C
:105440002000000000010001000100010001000136
:1054500000010001000040004000200000000000AA
:1054600000000000000000980124014401440144B0
:1054700000FC000410001FFC0088010401040088E7
:1054800000700000000000700088010401040104A5
:105490000088000000000070008801040104110869
:1054A0001FFC0004000000F80144014401440144D1
:1054B00000C800000000010401040FFC11041104E5
:1054C00011001800000000D601290129012901C995
:1054D0000106000010041FFC00840100010001040B
:1054E00000FC000400000104190419FC000400047D
:1054F000000000000000000300010101190119FE75
:105500000000000010041FFC0024004001B4010C46
:10551000010400000000100410041FFC000400043B
:1055200000000000010401FC0104010001FC010471
:10553000010000FC010401FC0084010001000104E1
:1055400000FC0004000000F801040104010401044F
:1055500000F80000010101FF00850104010400883A
:1055600000700000000000700088010401040105C3
:1055700001FF00010104010401FC00840104010099
:1055800001800000000000CC01240124012401243A
:105590000198000000000100010007F80104010467
:1055A00000000000010001F80004000400040108EC
:1055B00001FC0004010001800170000C001001607A
:1055C0000180010001F0010C003001C00030010C2D
:1055D00001F0010000000104018C00740170018CD5
:1055E00001040000010101810171000E0018016039
:1055F0000180010000000184010C01340144018498
:10560000010C0000000000000000000001003EFC52
:10561000400240020000000000000000FFFF000008
:10562000000000000000400240023EFC01000000BB
:10563000000000000000600080008000400040008A
:10564000200020000000000000000000000000001A
:10565000000000000000000000000000000000004A
:10566000000000000000000000000000000000003A
:10567000000000000000000F80380FFE380F803857
:10568000000000000000000000000000000000001A
:1056900000000100000600000C000038000031008E
:1056A000000600000C000038000030000000000080
:1056B0000000000061800067F807F9800061800049
:1056C00061800061800061800067F807F9800061F7
:1056D0008000000000000000000001C0E003E0F0D6
:1056E0000630080418081FFFFE040E080787F003A1
:1056F00081E000000000000001F000060C0004043E
:1057000008060C7001F9C0000E00003BE000EC1828
:10571000070808040C180003E00000000001E00086
:1057200007F003F818041C0804170807E1D003C0A9
:10573000E00023B0003C080020080000100000003A
:105740000000000100003100003200001C000000D9
:105750000000000000000000000000000000000049
:105760000000000000000000000000000000000039
:10577000000000007F0001FFC00780F00C0018103F
:1057800000042000020000000000002000021000C1
:10579000040C00180780F001FFC0007F000000002B
:1057A00000000000000000000000000000000000F9
:1057B0004200006600006600003C0000180003FF85
:1057C000C0001800003C00006600006600004200B7
:1057D00000000000080000080000080000080000A9
:1057E000080001FFC00008000008000008000008D1
:1057F000000008000000000000010000310000323D
:1058000000001C000000000000000000000000007C
:105810000000000000000000000000000800000878
:105820000000080000080000080000080000080050
:105830000008000008000008000000000000000050
:1058400000000000380000380000380000000000B0
:105850000000000000000000000000000000000048
:1058600000000000000600001C0000700001800025
:105870000E0000380000C0000700001C00003000CF
:1058800000000000000000007F8001FFE003807046
:1058900006001804000804000806001803807001C0
:1058A000FFE0007F80000000000000000000010019
:1058B0000801000801000803FFF807FFF8000008CE
:1058C00000000800000800000000000000000001C7
:1058D000C03802C0580400980401180402180404D7
:1058E00018061C1803F81801E0F80000000000007A
:1058F00000000001C0E003C0F00400080408080430
:10590000080806180803F41801E7F00001E0000099
:1059100000000000000000000300000D0000110066
:1059200000610000810803010807FFF80FFFF8007D
:1059300001080001080000000000000000E007FC72
:10594000D0060808061008061008061008061838C1
:10595000060FF00607C00000000000000000000075
:105960003F8001FFE003843002081804100804108F
:1059700008041008071810030FF00007C00000000B
:1059800000000000000003C0000700000600000641
:1059900000F80607F806180006E0000700000600F9
:1059A0000000000000000001E1E003F7F006341001
:1059B000041808041808040C08040C080616180338
:1059C000F3F001C1E000000000000000F80003FC5B
:1059D0003003063804020804020804020804041014
:1059E0000308F001FFC0007F00000000000000007D
:1059F000000000000000000000000000703800708F
:105A000038007038000000000000000000000000B6
:105A10000000000000000000000000000000000086
:105A2000301A00301C0000000000000000000000E0
:105A3000000000000000000000000008000014004A
:105A4000002200004100008080010040020020048C
:105A500000100800080000000000000021000021E4
:105A60000000210000210000210000210000210091
:105A700000210000210000210000000000000000C3
:105A8000000008000804001002002001004000800F
:105A90008000410000220000140000080000000007
:105AA00000000003C00004C0000400000800380823
:105AB0000F380808380810000C300007E00003C059
:105AC00000000000000000003F8000FFE003807045
:105AD000020F1006708804C088048308047F8802BF
