:020000040800F2
:100000007806002089010008C5060008F7040008EA
:10001000C1060008430200087B0B00080000000036
:10002000000000000000000000000000450800087B
:1000300055020008000000004D070008F9090008FB
:10004000A3010008A3010008A3010008A301000800
:10005000A3010008A3010008A3010008A3010008F0
:10006000A3010008A3010008A3010008A3010008E0
:10007000A3010008A3010008A3010008A3010008D0
:10008000A3010008A3010008A3010008A3010008C0
:10009000A3010008A3010008A3010008AD020008A5
:1000A000A3010008A3010008A3010008A3010008A0
:1000B000A3010008A3010008A3010008A301000890
:1000C000A3010008A3010008A3010008A301000880
:1000D000A3010008A3010008A3010008A301000870
:1000E00085020008A3010008A301000800F002F83F
:1000F00000F03AF80AA090E8000C82448344AAF188
:100100000107DA4501D100F02FF8AFF2090EBAE885
:100110000F0013F0010F18BFFB1A43F0010318473B
:100120007C0A00009C0A0000103A24BF78C878C1FD
:10013000FAD8520724BF30C830C144BF04680C60ED
:10014000704700000023002400250026103A28BF35
:1001500078C1FBD8520728BF30C148BF0B60704739
:100160001FB51FBD10B510BD00F031F81146FFF7E7
:10017000F7FF00F004FD00F04FF803B4FFF7F2FFC3
:1001800003BC00F057F800000948804709480047C1
:10019000FEE7FEE7FEE7FEE7FEE7FEE7FEE7FEE737
:1001A000FEE7FEE704480549054A064B7047000094
:1001B000FD090008ED000008780000207806002006
:1001C000780200207802002070477047704775461B
:1001D00000F02CF8AE4605006946534620F00700B3
:1001E000854618B020B5FFF7DDFFBDE820404FF091
:1001F00000064FF000074FF000084FF0000B21F011
:100200000701AC46ACE8C009ACE8C009ACE8C009DD
:10021000ACE8C0098D46704710B50446AFF30080C6
:100220002046BDE81040FFF7A8BF00000048704717
:100230001800002001491820ABBEFEE7260002008E
:10024000704700BFFEE700000148006870470000EB
:1002500014000020704700EBC001C9004FF0E022FD
:100260005161002191610521116100BF4FF0E02132
:10027000096901F480310029F8D004214FF0E0220F
:100280001161704710B54FF4004000F027F80128C5
:1002900008D105480068401F034908604FF400403A
:1002A00000F016F810BD00001400002010B520204A
:1002B00000F014F8012807D104480068401D0349E4
:1002C0000860202000F004F810BD00001400002099
:1002D00001490860704700001404014001460020F5
:1002E0000022074B1B6803EA0102054B14331B680D
:1002F0000B4013B10AB1012000E00020704700005C
:1003000000040140002123498279002A3AD00A469C
:10031000126803689A430B461A600A1D1268036844
:100320009A430B1D1A60027911440A6803681A4344
:100330000A60184A0832126803689A43154B08335A
:100340001A601A1D126803689A43124B0C331A6024
:100350004279102A0ED11A1F126803681A430D4BF6
:1003600008331A601A1D126803681A43094B0C33CC
:100370001A600DE00749427911440A6803681A437C
:100380000A6005E0027911440A6803689A430A602A
:10039000704700000004014030B500228B071C0F9D
:1003A0000F2303FA04F20B4B8C1053F824309343C1
:1003B000084C8D1044F8253023468C1053F8243017
:1003C0008C07240F00FA04F42343024C8D1044F8E8
:1003D000253030BD080001402DE9F04102460025DE
:1003E0000026002000230024002791F803C00CF011
:1003F0000F0591F803C00CF0100CBCF1000F03D0F6
:1004000091F802C04CEA050591F800C0BCF1000F5C
:1004100031D0146800202BE04FF0010C0CFA00F3EF
:10042000B1F800C00CEA03069E4220D183004FF0D1
:100430000F0C0CFA03F7BC4305FA03FC4CEA040466
:1004400091F803C0BCF1280F06D14FF0010C0CFA53
:1004500000FCC2F814C00AE091F803C0BCF1480FD8
:1004600005D14FF0010C0CFA00FCC2F810C0401C82
:100470000828D1D31460B1F800C0BCF1FF0F34DDFF
:10048000546800202EE000F1080C4FF0010808FA33
:100490000CF3B1F800C00CEA03069E4221D18300A0
:1004A0004FF00F0C0CFA03F7BC4305FA03FC4CEABF
:1004B000040491F803C0BCF1280F05D100F1080C29
:1004C00008FA0CF8C2F8148091F803C0BCF1480F88
:1004D00007D100F1080C4FF0010808FA0CF8C2F837
:1004E0001080401C0828CED35460BDE8F0814161E3
:1004F00070470161704700BFFEE7000000B589B09A
:100500000121084600F024F90121102000F020F913
:1005100048208DF823002020ADF8200003208DF81E
:10052000220008A92F48FFF757FF0121102000F0F3
:100530000FF948208DF81F004FF40040ADF81C0063
:1005400003208DF81E0007A92648FFF745FF052167
:100550000220FFF721FF2020059001208DF81A00CE
:1005600000208DF818000C208DF8190005A8FFF761
:10057000C9FE4FF4A06000F0DFF817208DF81000DE
:1005800001208DF813008DF811008DF8120004A8D9
:1005900000F09AF80F210020FFF7FEFE4FF4004014
:1005A000029001208DF80E0000208DF80C000C2028
:1005B0008DF80D0002A8FFF7A5FE4FF4A06000F033
:1005C000BBF828208DF8040001208DF807000220D8
:1005D0008DF805008DF8060001A800F075F809B047
:1005E00000BD000000100140FFF788FF0027012434
:1005F00039E0FFF729FEC5B205B905252D2D00D13B
:100600000525BFB900260EE0012000F047F820467E
:10061000FFF721FE002000F041F840F2F511081B21
:10062000FFF719FE761CAE42EEDB641CB4F5FA7FD0
:1006300000D10127012F16D100260EE0012000F085
:100640002DF82046FFF707FE002000F027F840F2C3
:10065000F511081BFFF7FFFD761CAE42EEDB641EB2
:10066000012C00D10027C4E708B50121042000F0C7
:100670006FF810208DF803000001ADF80000032092
:100680008DF8020069460448FFF7A6FE4FF480711A
:100690000148FFF72EFF08BD0008014010B50446D1
:1006A000012C04D101020548FFF721FF05E024B920
:1006B0004FF480710148FFF71CFF10BD0008014096
:1006C00000BFFEE77047000070B5002100230F2235
:1006D000C47804B3154C246804F4E064C4F5E06401
:1006E000210AC1F10403CA40447804FA03F1847872
:1006F0001440214309010E4C0678A155047804F0FA
:100700001F050124AC4005786D11AD0005F1E02511
:10071000C5F8004109E0047804F01F050124AC404D
:10072000044D0678761145F8264070BD0CED00E0CA
:1007300000E400E080E100E002490143024A116068
:10074000704700000000FA050CED00E07047000063
:1007500029B1064A92690243044B9A6104E0034AB4
:1007600092698243014B9A61704700000010024079
:1007700030B500210022002400232D4D6D6805F0C6
:100780000C0121B1042905D0082923D105E0294D08
:10079000056022E0274D05601FE0254D6D6805F4DA
:1007A0007012234D6D6805F48034022505EB9242EA
:1007B0001CB9214D554305600BE01D4D6D6805F4D6
:1007C00000351DB11C4D5543056002E0194D5543E0
:1007D000056002E0174D056000BF00BF144D6D6855
:1007E00005F0F0010909154D6B5C0568DD404560B9
:1007F0000F4D6D6805F4E061090A104D6B5C4568AA
:10080000DD4085600A4D6D6805F46051C90A0B4DE5
:100810006B5C4568DD40C560054D6D6805F4404181
:10082000890B074D6B5CC568B5FBF3F5056130BD01
:100830000010024000127A0000093D000000002074
:10084000100000207047000010B52021054800F07E
:1008500011F9012803D1034800F086F9C4B22046FB
:1008600010BD00000038014000B585B001218803AB
:10087000FFF76EFF01210420FFF76AFF18208DF8B3
:1008800013004FF40070ADF8100003208DF8120033
:1008900004A91548FFF7A0FD48208DF813004FF478
:1008A0008060ADF8100003208DF8120004A90E48F6
:1008B000FFF792FD4FF4165000900020ADF80C00A9
:1008C0000C20ADF80A000020ADF80800ADF80600D5
:1008D000ADF804006946054800F0DAF80121034844
:1008E00000F0BCF805B000BD000801400038014030
:1008F00010B504462146054800F03BF900BF8021B1
:10090000024800F0B7F80028F9D010BD00380140C7
:1009100010B500F001F810BD0CB50020019000905A
:100920003348006840F480303149086000BF3048E7
:10093000006800F4003000900198401C019000987D
:1009400018B90198B0F5A06FF1D12948006800F4FA
:10095000003010B10120009001E0002000900098CC
:10096000012843D12348006840F010002149086065
:100970000846006820F0070008600846006840F05C
:10098000020008601A4840681949486008464068F3
:1009900048600846406840F4806048600846406807
:1009A00020F47C1048600846406840F4E810486035
:1009B0000846006840F08070086000BF0C4800687E
:1009C00000F000700028F9D00948406820F00300CA
:1009D000074948600846406840F00200486000BF90
:1009E0000348406800F00C000828F9D10CBD000055
:1009F00000100240002002407047000010B513486C
:100A0000006840F00100114908600846406810493C
:100A100008400E494860084600680E4908400B49E6
:100A200008600846006820F4802008600846406896
:100A300020F4FE0048604FF41F008860FFF768FF55
:100A40004FF000600449086010BD00000010024033
:100A50000000FFF8FFFFF6FE08ED00E021B18289FB
:100A600042F40052828104E082894DF6FF731A40FD
:100A70008281704702460020B1F5007F00D100BF9F
:100A800013880B400BB1012000E0002070470000EC
:100A90002DE9F04786B005460E460024A24600BF69
:100AA000A1460027B08900B100BF2F462C8A4CF622
:100AB000FF700440F08804432C82AC894EF6F3109A
:100AC0000440B08831890843718908430443AC81EC
:100AD000AC8A4FF6FF400440B0890443AC8201A8C1
:100AE000FFF746FE1F48874202D1DDF810A001E063
:100AF000DDF80CA0A88900F4004040B10AEBCA0060
:100B000000EB0A1031684900B0FBF1F807E00AEB8E
:100B1000CA0000EB0A1031688900B0FBF1F86420CC
:100B2000B8FBF0F004012009642101FB1089A889B9
:100B300000F4004040B1322000EBC900B0FBF1F0FE
:100B400000F00700044308E0322000EB09106421A4
:100B5000B0FBF1F000F00F0004432C8106B0BDE8BB
:100B6000F08700000038014001468888C0F3080083
:100B70007047C1F308028280704700BFFEE7FFF7AD
:100B800073FDFFF771FE4120FFF7B2FE04E0FFF7AF
:100B90005BFE08B1FFF728FDF9E70000BC0B000879
:100BA000000000201800000028010008D40B0008F5
:100BB000180000206006000044010008000000004A
:100BC00001020304010203040607080902040608DF
:040BD000050000001C
:04000005080000ED02
:00000001FF
