:020000040800F2
:1000000048080020910100089D3A00085D0600089C
:10001000993A000829040008A33F000800000000E6
:10002000000000000000000000000000093C000883
:100030002D04000800000000113B00081D3D0008D1
:10004000AB010008AB010008AB010008AB010008E0
:10005000AB010008AB010008AB010008AB010008D0
:10006000AB010008AB010008AB010008AB010008C0
:10007000AB010008AB010008AB010008AB010008B0
:10008000AB010008AB010008AB010008AB010008A0
:10009000AB010008AB010008AB01000859040008DF
:1000A000AB010008AB010008AB010008AB01000880
:1000B000AB010008AB010008AB010008AB01000870
:1000C000AB010008AB010008AB010008AB01000860
:1000D000AB010008813D0008AB010008AB0100083E
:1000E00031040008AB010008AB01000800F002F881
:1000F00000F03FF80AA090E8000C82448344AAF183
:100100000107DA4501D100F034F8AFF2090EBAE880
:100110000F0013F0010F18BFFB1A43F0010318473B
:10012000A8430000C8430000103A24BF78C878C133
:10013000FAD8520724BF30C830C144BF04680C60ED
:10014000704700000023002400250026103A28BF35
:1001500078C1FBD8520728BF30C148BF0B60704739
:10016000782900F07780002070471FB51FBD10B5BB
:1001700010BD00F027F91146FFF7F7FF03F0D4FF99
:1001800000F045F903B4FFF7F2FF03BC03F00BFFE7
:100190000948804709480047FEE7FEE7FEE7FEE71B
:1001A000FEE7FEE7FEE7FEE7FEE7FEE70448054957
:1001B000054A064B70470000213D0008ED0000088D
:1001C000480200204808002048040020480400207D
:1001D000704700000FB4044910B503AA029800F05C
:1001E000C3F810BC5DF814FB280000202DE9F04195
:1001F0000E460446002020622046E168884730B35E
:10020000252805D0D4E901219047206A401CF2E757
:10021000E168204600278847050018D0A5F1410075
:10022000192802D820354FF4006732462946204667
:100230002760FFF795FF40B1012804D0F61D26F096
:1002400007060836D8E7361DD6E72846DAE7206ADB
:10025000BDE8F08170B504460D4621461068AFF345
:1002600000802188090502D50F4A7A4402E00E4A2F
:100270007A440E32002104F1240305E000F00F0659
:100280000009965D5E54491C0028F7D120780023B0
:10029000000704D5702D02D009B102231132204687
:1002A000BDE8704000F006B8324200007047704769
:1002B000704770472DE9F0470D469946924604462F
:1002C00000F124080168880604D5E06921F01001D6
:1002D000216000E00120A84201DD471B00E000276B
:1002E000A1697A1902EB0900081AA0612078C006FA
:1002F00002D42046AFF30080002608E0D4E90121B3
:100300001AF806009047206A401C761C20624E4571
:10031000F4DB2078C0060AD52046AFF3008006E063
:10032000D4E9012130209047206A401C2062381E09
:10033000A7F10107F4DC07E0D4E9012118F8050072
:100340009047206A401C2062281EA5F10105F3DCBD
:100350002046AFF300802078000602D50220BDE8D9
:10036000F0870120FBE70000074B70B50D467B448A
:1003700000F011F80446284600F020F810B14FF0C4
:10038000FF3070BD204670BD9B3D000001694A1CD6
:1003900002610878704700B58FB0CDE901310021C6
:1003A000059105497944CDE9031011466846FFF7E8
:1003B0001DFF0FB000BD0000E5FFFFFF007B00F058
:1003C00080007047754600F02BF8AE460500694680
:1003D000534620F00700854618B020B5FFF7E6FE2B
:1003E000BDE820404FF000064FF000074FF0000836
:1003F0004FF0000B21F00701AC46ACE8C009ACE8B7
:10040000C009ACE8C009ACE8C0098D46704710B51A
:100410000446AFF300802046BDE81040FFF7B2BEAF
:1004200000487047E801002000BFFEE77047000069
:1004300010B54FF4004000F027F8012808D1054816
:100440000068401F034908604FF4004000F016F8B0
:1004500010BD00003400002010B5202000F014F87A
:10046000012807D104480068401D03490860202086
:1004700000F004F810BD00003400002001490860BD
:100480007047000014040140014600200022074B81
:100490001B6803EA0102054B14331B680B4013B1C0
:1004A0000AB1012000E00020704700000004014074
:1004B0002DE9F041024600250026002000230024FB
:1004C000002791F803C00CF00F0591F803C00CF061
:1004D000100CBCF1000F03D091F802C04CEA0505E6
:1004E00091F800C0BCF1000F31D0146800202BE05F
:1004F0004FF0010C0CFA00F3B1F800C00CEA03064F
:100500009E4220D183004FF00F0C0CFA03F7BC433E
:1005100005FA03FC4CEA040491F803C0BCF1280F6F
:1005200006D14FF0010C0CFA00FCC2F814C00AE02E
:1005300091F803C0BCF1480F05D14FF0010C0CFA43
:1005400000FCC2F810C0401C0828D1D31460B1F8D8
:1005500000C0BCF1FF0F34DD546800202EE000F134
:10056000080C4FF0010808FA0CF3B1F800C00CEACF
:1005700003069E4221D183004FF00F0C0CFA03F7C3
:10058000BC4305FA03FC4CEA040491F803C0BCF137
:10059000280F05D100F1080C08FA0CF8C2F81480F5
:1005A00091F803C0BCF1480F07D100F1080C4FF0DF
:1005B000010808FA0CF8C2F81080401C0828CED3B5
:1005C0005460BDE8F0810000F0B50A460023002425
:1005D0000021002500F00046B6F1004F02D11D4E6B
:1005E000F16901E01B4E7168C0F3034583B200F46A
:1005F0004016B6F5401F08D121F07061154E76689F
:1006000026F07066134F7E6012E000F48016B6F597
:10061000801F06D1032606FA05F4A14341F070615C
:1006200006E0460D360103FA06F6B14341F070616B
:1006300022B1460D360103FA06F6314300F00046BA
:10064000B6F1004F02D1034EF16101E0014E71603D
:10065000F0BD0000000001400161704700BFFEE7EF
:1006600070B5044600260E480588408845430021A1
:10067000084603F045F803F0D5F900BF0DE04FF44C
:100680008070084908614000486107480460802084
:100690004861086180000861761CAE42EFD370BDEE
:1006A000D8010020001001400C0C014010B5044698
:1006B00049488471002C45D1F020474908804FF407
:1006C000A07048800846808845F21051884210D1B9
:1006D0004FF43050404908814FF4285048814FF47E
:1006E0002C5088814FF4F07008804FF44870488097
:1006F0001AE03948808841F6631188420DD12C20D8
:10070000354908812B2048812A2088814FF4F070D8
:1007100008804FF44870488006E02C202E4908815C
:100720002A2048812B2088812B48808845F210316F
:1007300088424CD14FF4A070274908804FF4F070E4
:10074000488044E04FF4A07023490880F02048809E
:100750000846808845F21051884210D14FF430503D
:100760001D4908814FF4285048814FF42C5088814E
:100770004FF4487008804FF4F07048801AE0164833
:10078000808841F6631188420DD12C2012490881DE
:100790002A2048812B2088814FF4487008804FF42C
:1007A000F070488006E02C200B4908812A204881FF
:1007B0002B2088810848808845F21031884206D174
:1007C0004FF4F070044908804FF4A0704880002076
:1007D00002F0C6FD10BD0000D80100202DE9FF4F3A
:1007E00084B081468A460020039002900698A0EBD0
:1007F00009050798A0EB0A06CDF80490CDF800A0F3
:10080000002D01DD012705E00DB9002702E04FF0C2
:10081000FF376D42002E02DD4FF0010806E016B9E9
:100820004FF0000802E04FF0FF387642B54201DD9C
:100830002C4600E034464FF0000B21E0009A91B2C4
:10084000019A90B200F022F803982844039002988D
:10085000304402900398A04205DD0398001B0390EA
:100860000198384401900298A04205DD0298001BCF
:1008700002900098404400900BF101001FFA80FBA9
:10088000601C8345DADD08B0BDE8F08F30B5044662
:100890000D462946204602F033FF03F0C3F84FF41B
:1008A0008070074908614000486106480088064991
:1008B000086080200249486108618000086130BDFD
:1008C00000100140380000200C0C014008B5012147
:1008D000192003F01FF90121FE48FFF775FE4FF4C0
:1008E000F860ADF8000010208DF8030003208DF8AB
:1008F00002006946F848FFF7DBFD4FF4F861F6485F
:10090000FFF7AAFE4FF6FF70ADF800006946F34806
:10091000FFF7CEFD4FF6FF71F048FFF79DFE322046
:1009200003F066FB0121002003F084F8322003F07D
:100930005FFBD32003F064F802F078FCE84988807C
:1009400002F074FCE649888002F070FCE44988807B
:10095000084680884FF6FF7101EA0020E049888050
:1009600002F064FCDE4989880843DD498880084636
:10097000808849F2413188427DD0042003F040F85C
:1009800002F054FCD649888002F050FCD44988809B
:1009900002F04CFCD2498880084680884FF6FF71EF
:1009A00001EA0020CE49888002F040FCCC498988C9
:1009B0000843CB4988800846808848F252518842D3
:1009C00003D147F28970C6498880C548808847F2BC
:1009D00089718842D0D0D42003F012F802F026FCAE
:1009E000BF49888002F022FCBD49888002F01EFCCD
:1009F000BB498880084680884FF6FF7101EA0020D5
:100A0000B749888002F012FCB54989880843B44987
:100A100088800846808845F21031884262D055218E
:100A20004FF4704003F006F8AA214FF2010003F0E2
:100A300001F852214FF2020002F0FCFF08214FF2B0
:100A4000030002F0F7FF01214FF2040002F0F2FF71
:100A50004FF4454002F0D4FF02F0E8FBA049888043
:100A6000084680884FF6FF7101EA00209C49888083
:100A70004CF2015000E035E002F0C2FF02F0D6FB7C
:100A800097498988084396498880052003F0B0FA81
:100A90009348808845F21051884223D0A12002F06B
:100AA000AFFF02F0C3FB8E49888002F0BFFB8C4988
:100AB0008880084680884FF6FF7101EA0020884947
:100AC000888002F0B3FB864989880843844988807E
:100AD0000846808845F26171884203D141F663106F
:100AE0007F4988807E4881887EA0FFF773FB7C4821
:100AF000808849F2413188427ED1CF2002F080FFC8
:100B0000002002F06BFFC12002F068FF302002F0ED
:100B100065FFED2002F074FF642002F05FFF032008
:100B200002F05CFF122002F059FF812002F056FF14
:100B3000E82002F065FF852002F050FF102002F04F
:100B40004DFF7A2002F04AFFCB2002F059FF3920F6
:100B500002F044FF2C2002F041FF002002F03EFF93
:100B6000342002F03BFF022002F038FFF72002F0B1
:100B700047FF202002F032FFEA2002F041FF002070
:100B800002F02CFF002002F029FFC02002F038FF05
:100B90001B2002F023FFC12002F032FF012002F0EF
:100BA0001DFFC52002F02CFF302002F017FF30207F
:100BB00002F014FFC72002F023FFB72002F00EFF5F
:100BC000362002F01DFF482002F008FF3A2002F014
:100BD00017FF552002F002FFB12002F011FF0020A4
:100BE00002F0FCFE1A2002F0F9FEB62002F008FF27
:100BF0000A2002F0F3FE00E0A8E0A22002F0EEFEE0
:100C0000F22002F0FDFE002002F0E8FE262002F0B5
:100C1000F7FE012002F0E2FEE02002F0F1FE0F20DC
:100C200002F0DCFE2A2002F0D9FE282002F0D6FED7
:100C3000082002F0D3FE0E2002F0D0FE082002F0C1
:100C4000CDFE542002F0CAFEA92002F0C7FE4320C8
:100C500002F0C4FE0A2002F0C1FE0F2002F0BEFE28
:100C6000002002F0BBFE002002F0B8FE002002F0DF
:100C7000B5FE002002F0B2FEE12002F0C1FE00202D
:100C800002F0ACFE152002F0A9FE172002F0A6FE2D
:100C9000072002F0A3FE112002F0A0FE062002F0C1
:100CA0009DFE2B2002F09AFE562002F097FE3C207B
:100CB00002F094FE052002F091FE102002F08EFE5C
:100CC0000F2002F08BFE3F2002F088FE3F2002F052
:100CD00085FE0FE00002300000100140000C0140D2
:100CE000D8010020204C43442049443A25780D0A7D
:100CF000000000000F2002F071FE2B2002F080FEA9
:100D0000002002F06BFE002002F068FE012002F0DD
:100D100065FE3F2002F062FE2A2002F071FE0020F4
:100D200002F05CFE002002F059FE002002F056FEA8
:100D3000EF2002F053FE112002F062FE782003F053
:100D400057F9292002F05CFE02F05FBAFE48808865
:100D500047F2897188427CD1112002F051FE78203F
:100D600003F046F9362002F04BFE002002F036FE7A
:100D70003A2002F045FE052002F030FEB22002F0DB
:100D80003FFE0C2002F02AFE0C2002F027FE00207D
:100D900002F024FE332002F021FE332002F01EFE7A
:100DA000B72002F02DFE352002F018FEBB2002F025
:100DB00027FE322002F012FEC02002F021FE0C209D
:100DC00002F00CFEC22002F01BFE012002F006FE23
:100DD000C32002F015FE102002F000FEC42002F035
:100DE0000FFE202002F0FAFDC62002F009FE0F20BF
:100DF00002F0F4FDD02002F003FEA42002F0EEFD8C
:100E0000A12002F0EBFDE02002F0FAFDD02002F07C
:100E1000E5FD002002F0E2FD022002F0DFFD0720E8
:100E200002F0DCFD0A2002F0D9FD282002F0D6FDF8
:100E3000322002F0D3FD442002F0D0FD422002F027
:100E4000CDFD062002F0CAFD0E2002F0C7FD1220E3
:100E500000E056E002F0C2FD142002F0BFFD1720B2
:100E600002F0BCFDE12002F0CBFDD02002F0B6FD87
:100E7000002002F0B3FD022002F0B0FD072002F0D6
:100E8000ADFD0A2002F0AAFD282002F0A7FD3120C6
:100E900002F0A4FD542002F0A1FD472002F09EFDC7
:100EA0000E2002F09BFD1C2002F098FD172002F09E
:100EB00095FD1B2002F092FD1E2002F08FFD2A20DE
:100EC00002F09EFD002002F089FD002002F086FD68
:100ED000002002F083FDEF2002F080FD2B2002F0C5
:100EE0008FFD002002F07AFD002002F077FD012046
:100EF00002F074FD3F2002F071FD292002F080FD18
:100F000022E79148808845F21031884240F07C8782
:100F1000ED2002F075FD012002F060FDFE2002F0E0
:100F20005DFDEE2002F06CFDDE2002F057FD212079
:100F300002F054FDF12002F063FD012002F04EFDAD
:100F4000DF2002F05DFD102002F048FDC42002F019
:100F500057FD8F2002F042FDC62002F051FD002017
:100F600002F03CFDE22002F039FDE22002F036FD05
:100F7000E22002F033FDBF2002F042FDAA2002F081
:100F80002DFDB02002F03CFD0D2002F027FD0020D9
:100F900002F024FD0D2002F021FD002002F01EFDD4
:100FA000112002F01BFD002002F018FD192002F0B4
:100FB00015FD002002F012FD212002F00FFD00209F
:100FC00002F00CFD2D2002F009FD002002F006FDCC
:100FD0003D2002F003FD002002F000FD5D2002F044
:100FE000FDFC002002F0FAFC5D2002F0F7FC00207E
:100FF00002F0F4FCB12002F003FD802002F0EEFCD0
:10100000002002F0EBFC8B2002F0E8FC002002F054
:10101000E5FC962002F0E2FC002002F0DFFCB220AA
:1010200002F0EEFC002002F0D9FC002002F0D6FC19
:10103000022002F0D3FC002002F0D0FC032002F0DA
:10104000CDFC002002F0CAFCB32002F0D9FC002045
:1010500002F0C4FC002002F0C1FC002002F0BEFC43
:10106000002002F0BBFC002002F0B8FC002002F0DF
:10107000B5FC002002F0B2FC002002F0AFFC002022
:1010800002F0ACFC002002F0A9FC002002F0A6FC5B
:10109000002002F0A3FC002002F0A0FC002002F0DF
:1010A0009DFC002002F09AFC002002F097FC00203A
:1010B00002F094FC002002F091FC002002F08EFC73
:1010C000002002F08BFC002002F088FC002002F0DF
:1010D00085FC002002F082FC002002F07FFCB4209E
:1010E00002F08EFC8B2002F079FC002002F076FCEE
:1010F000962002F073FC002002F070FCA12002F0A8
:101100006DFC002002F06AFCB52002F079FC0220A0
:1011100002F064FC002002F061FC032002F05EFC9F
:10112000002002F05BFC042002F058FC002002F0DA
:1011300055FCB62002F064FC002002F04FFC0020B9
:1011400002F04CFCB72001E0D801002002F058FC6E
:10115000002002F043FC002002F040FC3F2002F09F
:101160003DFC002002F03AFC5E2002F037FC00203B
:1011700002F034FC642002F031FC002002F02EFC6E
:101180008C2002F02BFC002002F028FCAC2002F0A6
:1011900025FC002002F022FCDC2002F01FFC0020D5
:1011A00002F01CFC702002F019FC002002F016FC7A
:1011B000902002F013FC002002F010FCEB2002F063
:1011C0000DFC002002F00AFCDC2002F007FC0020ED
:1011D00002F004FCB82002F013FC002002F0FEFB39
:1011E000002002F0FBFB002002F0F8FB002002F0E0
:1011F000F5FB002002F0F2FB002002F0EFFB0020E4
:1012000002F0ECFB002002F0E9FBBA2002F0F8FB50
:10121000242002F0E3FB002002F0E0FB002002F0BB
:10122000DDFB002002F0DAFBC12002F0E9FB202008
:1012300002F0D4FB002002F0D1FB542002F0CEFBE0
:10124000002002F0CBFBFF2002F0C8FB002002F0E0
:10125000C5FBC22002F0D4FB0A2002F0BFFB002035
:1012600002F0BCFB042002F0B9FB002002F0B6FB48
:10127000C32002F0C5FB3C2002F0B0FB002002F0CE
:10128000ADFB3A2002F0AAFB002002F0A7FB3920B8
:1012900002F0A4FB002002F0A1FB372002F09EFB2D
:1012A000002002F09BFB3C2002F098FB002002F0A3
:1012B00095FB362002F092FB002002F08FFB3220DB
:1012C00002F08CFB002002F089FB2F2002F086FB4D
:1012D000002002F083FB2C2002F080FB002002F0B3
:1012E0007DFB292002F07AFB002002F077FB26200C
:1012F00002F074FB002002F071FB242002F06EFB70
:10130000002002F06BFB242002F068FB002002F0BA
:1013100065FB232002F062FB002002F05FFB3C2013
:1013200002F05CFB002002F059FB362002F056FB75
:10133000002002F053FB322002F050FB002002F0AC
:101340004DFB2F2002F04AFB002002F047FB2C202F
:1013500002F044FB002002F041FB292002F03EFB9A
:10136000002002F03BFB262002F038FB002002F0B8
:1013700035FB242002F032FB002002F02FFB24205A
:1013800002F02CFB002002F029FB232002F026FBB8
:10139000002002F023FBC42002F032FB622002F0A6
:1013A0001DFB002002F01AFB052002F017FB0020B5
:1013B00002F014FB842002F011FB002002F00EFB6F
:1013C000F02002F00BFB002002F008FB182002F0D6
:1013D00005FB002002F002FBA42002F0FFFA00202F
:1013E00002F0FCFA182002F0F9FA002002F0F6FAF6
:1013F000502002F0F3FA002002F0F0FA0C2002F084
:10140000EDFA002002F0EAFA172002F0E7FA0020D5
:1014100002F0E4FA952002F0E1FA002002F0DEFA90
:10142000F32002F0DBFA002002F0D8FAE62002F006
:10143000D5FA002002F0D2FAC52002F0E1FA3220FB
:1014400002F0CCFA002002F0C9FA442002F0C6FAF9
:10145000002002F0C3FA652002F0C0FA002002F07A
:10146000BDFA762002F0BAFA002002F0B7FA88201E
:1014700002F0B4FA002002F0B1FAC62002F0C0FA7D
:10148000202002F0ABFA002002F0A8FA172002F0A8
:10149000A5FA002002F0A2FA012002F09FFA002033
:1014A00002F09CFAC72002F0ABFA002002F096FA94
:1014B000002002F093FA002002F090FA002002F0DF
:1014C0008DFAC82002F09CFA002002F087FA002072
:1014D00002F084FA002002F081FA002002F07EFA85
:1014E000C92002F08DFA002002F078FA002002F004
:1014F00075FA002002F072FA002002F06FFA002064
:1015000002F06CFA002002F069FA002002F066FA9C
:10151000002002F063FA002002F060FA002002F0DE
:101520005DFA002002F05AFA002002F057FA00207B
:1015300002F054FA002002F051FA002002F04EFAB4
:10154000002002F04BFAE02002F05AFA162002F0D6
:1015500045FA002002F042FA1C2002F03FFA002077
:1015600002F03CFA212002F039FA002002F036FAAB
:10157000362002F033FA002002F030FA462002F062
:101580002DFA002002F02AFA522002F027FA002059
:1015900002F024FA642002F021FA002002F01EFA80
:1015A0007A2002F01BFA002002F018FA8B2002F0D9
:1015B00015FA002002F012FA992002F00FFA00202A
:1015C00002F00CFAA82002F009FA002002F006FA54
:1015D000B92002F003FA002002F000FAC42002F061
:1015E000FDF9002002F0FAF9CA2002F0F7F9002014
:1015F00002F0F4F9D22002F0F1F9002002F0EEF945
:10160000D92002F0EBF9002002F0E8F9E02002F026
:10161000E5F9002002F0E2F9F32002F0DFF9002002
:1016200002F0DCF9E12002F0EBF9162002F0D6F925
:10163000002002F0D3F91C2002F0D0F9002002F0C3
:10164000CDF9222002F0CAF9002002F0C7F93620B5
:1016500002F0C4F9002002F0C1F9452002F0BEF901
:10166000002002F0BBF9522002F0B8F9002002F08D
:10167000B5F9642002F0B2F9002002F0AFF97A2047
:1016800002F0ACF9002002F0A9F98B2002F0A6F9D3
:10169000002002F0A3F9992002F0A0F9002002F046
:1016A0009DF9A82002F09AF9002002F097F9B920DC
:1016B00002F094F9002002F091F9C42002F08EF9B2
:1016C000002002F08BF9CA2002F088F9002002F015
:1016D00085F9D22002F082F9002002F07FF9D820AB
:1016E00002F07CF9002002F079F9E02002F076F9AE
:1016F000002002F073F9F32002F070F9002002F0EC
:101700006DF9E22002F07CF9052002F067F9002073
:1017100002F064F90B2002F061F9002002F05EF99A
:101720001B2002F05BF9002002F058F9342002F08F
:1017300055F9002002F052F9442002F04FF9002040
:1017400002F04CF94F2002F049F9002002F046F96E
:10175000612002F043F9002002F040F9792002F004
:101760003DF9002002F03AF9882002F037F9002014
:1017700002F034F9972002F031F9002002F02EF93E
:10178000A62002F02BF9002002F028F9B72002F081
:1017900025F9002002F022F9C22002F01FF90020F2
:1017A00002F01CF9C72002F019F9002002F016F926
:1017B000D12002F013F9002002F010F9D62002F037
:1017C0000DF9002002F00AF9DD2002F007F90020EF
:1017D00002F004F9F32002F001F9002002F0FEF813
:1017E000E32002F00DF9052002F0F8F8002002F0E5
:1017F000F5F80A2002F0F2F8002002F0EFF81C20C1
:1018000002F0ECF8002002F0E9F8332002F0E6F8EC
:10181000002002F0E3F8442002F0E0F8002002F09B
:10182000DDF8502002F0DAF8002002F0D7F862204C
:1018300002F0D4F8002002F0D1F8782002F0CEF8BF
:10184000002002F0CBF8882002F0C8F8002002F057
:10185000C5F8972002F0C2F8002002F0BFF8A620D9
:1018600002F0BCF8002002F0B9F8B72002F0B6F898
:10187000002002F0B3F8C22002F0B0F8002002F01D
:10188000ADF8C72002F0AAF8002002F0A7F8D12096
:1018900002F0A4F8002002F0A1F8D52002F09EF892
:1018A000002002F09BF8DD2002F098F8002002F002
:1018B00095F8F32002F092F8002002F08FF8E4206F
:1018C00002F09EF8012002F089F8002002F086F86C
:1018D000012002F083F8002002F080F8022002F0DC
:1018E0007DF8002002F07AF82A2002F077F8002034
:1018F00002F074F83C2002F071F8002002F06EF85B
:101900004B2002F06BF8002002F068F85D2002F036
:1019100065F8002002F062F8742002F05FF8002001
:1019200002F05CF8842002F059F8002002F056F82A
:10193000932002F053F8002002F050F8A22002F0A9
:101940004DF8002002F04AF8B32002F047F80020DA
:1019500002F044F8BE2002F041F8002002F03EF808
:10196000C42002F03BF8002002F038F8CD2002F04D
:1019700035F8002002F032F8D32002F02FF80020D2
:1019800002F02CF8DD2002F029F8002002F026F801
:10199000F32002F023F8002002F020F8E52002F006
:1019A0002FF8002002F01AF8002002F017F80020AB
:1019B00002F014F8002002F011F8022002F00EF8F4
:1019C000002002F00BF8292002F008F8002002F0B5
:1019D00005F83C2002F002F8002001F0FFFF4B2048
:1019E00001F0FCFF002001F0F9FF5D2001F0F6FF9F
:1019F000002001F0F3FF742001F0F0FF002001F05F
:101A0000EDFF842001F0EAFF002001F0E7FF9320C2
:101A100001F0E4FF002001F0E1FFA22001F0DEFF71
:101A2000002001F0DBFFB32001F0D8FF002001F01F
:101A3000D5FFBE2001F0D2FF002001F0CFFFC4206F
:101A400001F0CCFF002001F0C9FFCD2001F0C6FF5E
:101A5000002001F0C3FFD32001F0C0FF002001F0FF
:101A6000BDFFDC2001F0BAFF002001F0B7FFF3203A
:101A700001F0B4FF002001F0B1FFE62001F0C0FF4B
:101A8000112001F0ABFF002001F0A8FF342001F08D
:101A9000A5FF002001F0A2FF562001F09FFF0020CB
:101AA00001F09CFF762001F099FF002001F096FFE5
:101AB000772001F093FF002001F090FF662001F0F5
:101AC0008DFF002001F08AFF882001F087FF0020B1
:101AD00001F084FF992001F081FF002001F07EFFDA
:101AE000BB2001F07BFF002001F078FF992001F07E
:101AF00075FF002001F072FF662001F06FFF0020EB
:101B000001F06CFF552001F069FF002001F066FF35
:101B1000552001F063FF002001F060FF452001F037
:101B20005DFF002001F05AFF432001F057FF002025
:101B300001F054FF442001F051FF002001F04EFF5E
:101B4000E72001F05DFF322001F048FF002001F0A6
:101B500045FF552001F042FF002001F03FFF7620B5
:101B600001F03CFF002001F039FF662001F036FF54
:101B7000002001F033FF672001F030FF002001F06A
:101B80002DFF672001F02AFF002001F027FF8720AA
:101B900001F024FF002001F021FF992001F01EFF39
:101BA000002001F01BFFBB2001F018FF002001F016
:101BB00015FF992001F012FF002001F00FFF7720A0
:101BC00001F00CFF002001F009FF442001F006FFA6
:101BD000002001F003FF562001F000FF002001F07B
:101BE000FDFE232001F0FAFE002001F0F7FE332075
:101BF00001F0F4FE002001F0F1FE452001F0EEFEC0
:101C0000002001F0EBFEE82001F0FAFE002001F0D8
:101C1000E5FE002001F0E2FE992001F0DFFE002049
:101C200001F0DCFE872001F0D9FE002001F0D6FE95
:101C3000882001F0D3FE002001F0D0FE772001F0D3
:101C4000CDFE002001F0CAFE662001F0C7FE002094
:101C500001F0C4FE882001F0C1FE002001F0BEFEAC
:101C6000AA2001F0BBFE002001F0B8FEBB2001F06D
:101C7000B5FE002001F0B2FE992001F0AFFE002079
:101C800001F0ACFE662001F0A9FE002001F0A6FEE6
:101C9000552001F0A3FE002001F0A0FE552001F028
:101CA0009DFE002001F09AFE442001F097FE0020E6
:101CB00001F094FE442001F091FE002001F08EFE20
:101CC000552001F08BFE002001F088FEE92001F094
:101CD00097FEAA2001F082FE002001F07FFE002086
:101CE00001F07CFE002001F079FE002001F088FE6A
:101CF000AA2001F073FECF2001F082FE002001F047
:101D00006DFE002001F06AFE002001F067FE002059
:101D100001F064FE002001F061FE002001F05EFE93
:101D2000002001F05BFE002001F058FE002001F0D1
:101D300055FE002001F052FE002001F04FFE002071
:101D400001F04CFE002001F049FE002001F046FEAB
:101D5000002001F043FE002001F040FE002001F0D1
:101D60003DFEF02001F04CFE002001F037FE502037
:101D700001F034FE002001F031FE002001F02EFEC3
:101D8000002001F02BFEF32001F03AFE002001F0CC
:101D900025FEF92001F034FE062001F01FFE102080
:101DA00001F01CFE292001F019FE002001F016FEB2
:101DB0003A2001F025FE552001F010FE112001F01F
:101DC0001FFE642002F014F9292001F019FE3520CD
:101DD00001F016FE002001F001FE512001F010FE7E
:101DE000FF2001F0FBFD532001F00AFE2C2001F042
:101DF000F5FD552001F004FE822001F0EFFD2C20BE
:101E000001F0FEFD01F001BAFE48808845F2105154
:101E100088427DD155214FF4704001F00BFEAA217C
:101E20004FF2010001F006FE52214FF2020001F0D4
:101E300001FE08214FF2030001F0FCFD01214FF2E9
:101E4000040001F0F7FD0D214FF4304001F0F2FDE8
:101E50000D214BF2010001F0EDFD0D214BF20200CE
:101E600001F0E8FD34214FF4364001F0E3FD342168
:101E70004BF2016001F0DEFD34214BF2026001F013
:101E8000D9FD0D214FF4314001F0D4FD0D214BF26D
:101E9000011001F0CFFD0D214BF2021001F0CAFD3F
:101EA00034214FF4374001F0C5FD34214BF201706D
:101EB00001F0C0FD34214BF2027001F0BBFD0021A6
:101EC0004FF4324001F0B6FD00214BF2012001F049
:101ED000B1FD00214BF2022001F0ACFD24214FF4B2
:101EE000384001F0A7FD24214BF6010001F0A2FDCE
:101EF00024214BF6020001F09DFD01214FF43F40EB
:101F000001F098FD0F214FF4334001F093FD00E004
:101F1000FDE30F214BF2013001F08CFD0F214BF25C
:101F2000023001F087FD34214FF4394001F082FD89
:101F300034214BF6011001F07DFD34214BF60210E7
:101F400001F078FD08214FF4354001F073FD0821C0
:101F50004BF2015001F06EFD08214BF2025001F0EE
:101F600069FD03214FF4424001F064FD24214FF448
:101F70003A4001F05FFD24214BF6012001F05AFDAB
:101F800024214BF6022001F055FD00214FF43C4086
:101F900001F050FD78214BF6014001F04BFD00218E
:101FA0004BF6024001F046FD00214FF43D4001F0A8
:101FB00041FD78214BF6015001F03CFD00214BF62C
:101FC000025001F037FD00214FF43E4001F032FD98
:101FD00064214BF6016001F02DFD00214FF45140CA
:101FE00001F028FD33214DF2011001F023FD002105
:101FF0004DF2021001F01EFD34214DF2031001F0EC
:1020000019FD00214DF2041001F014FD3A214DF2AA
:10201000051001F00FFD00214DF2061001F00AFD40
:102020004A214DF2071001F005FD00214DF2081084
:1020300001F000FD5C214DF2091001F0FBFC0021D4
:102040004DF20A1001F0F6FC81214DF20B1001F067
:10205000F1FC00214DF20C1001F0ECFCA6214DF238
:102060000D1001F0E7FC00214DF20E1001F0E2FC32
:10207000E5214DF20F1001F0DDFC01214DF21010B1
:1020800001F0D8FC13214DF2111001F0D3FC012115
:102090004DF2121001F0CEFC54214DF2131001F05C
:1020A000C9FC01214DF2141001F0C4FC82214DF253
:1020B000151001F0BFFC01214DF2161001F0BAFC21
:1020C000CA214DF2171001F0B5FC02214DF2181093
:1020D00001F0B0FC00214DF2191001F0ABFC02211F
:1020E0004DF21A1001F0A6FC01214DF21B1001F077
:1020F000A1FC02214DF21C1001F09CFC34214DF298
:102100001D1001F097FC02214DF21E1001F092FC0F
:1021100067214DF21F1001F08DFC02214DF22010BD
:1021200001F088FC84214DF2211001F083FC022192
:102130004DF2221001F07EFCA4214DF2231001F09B
:1021400079FC02214DF2241001F074FCB7214DF20C
:10215000251001F06FFC02214DF2261001F06AFCFF
:10216000CF214DF2271001F065FC02214DF228101D
:1021700001F060FCDE214DF2291001F05BFC022130
:102180004DF22A1001F056FCF2214DF22B1001F015
:1021900051FC02214DF22C1001F04CFCFE214DF2BD
:1021A0002D1001F047FC03214DF22E1001F042FCEE
:1021B00010214DF22F1001F03DFC03214DF23010A3
:1021C00001F038FC33214DF2311001F033FC0321D2
:1021D0004DF2321001F02EFC6D214DF2331001F062
:1021E00029FC00214FF4524001F024FC33214DF230
:1021F000012001F01FFC00214DF2022001F01AFC29
:10220000342101E0D80100204DF2032001F012FC3E
:1022100000214DF2042001F00DFC3A214DF2052081
:1022200001F008FC00214DF2062001F003FC4A21D8
:102230004DF2072001F0FEFB00214DF2082001F0D5
:10224000F9FB5C214DF2092001F0F4FB00214DF275
:102250000A2001F0EFFB81214DF20B2001F0EAFB97
:1022600000214DF20C2001F0E5FBA6214DF20D20DE
:1022700001F0E0FB00214DF20E2001F0DBFBE52137
:102280004DF20F2001F0D6FB01214DF2102001F09C
:10229000D1FB13214DF2112001F0CCFB01214DF2B5
:1022A000122001F0C7FB54214DF2132001F0C2FBB4
:1022B00001214DF2142001F0BDFB82214DF21520C9
:1022C00001F0B8FB01214DF2162001F0B3FBCA2149
:1022D0004DF2172001F0AEFB02214DF2182001F063
:1022E000A9FB00214DF2192001F0A4FB02214DF2BF
:1022F0001A2001F09FFB01214DF21B2001F09AFBF7
:1023000002214DF21C2001F095FB34214DF21D20DD
:1023100001F090FB02214DF21E2001F08BFB6721A2
:102320004DF21F2001F086FB02214DF2202001F02A
:1023300081FB84214DF2212001F07CFB02214DF232
:10234000222001F077FBA4214DF2232001F072FB43
:1023500002214DF2242001F06DFBB7214DF2252022
:1023600001F068FB02214DF2262001F063FBCF2132
:102370004DF2272001F05EFB02214DF2282001F0F2
:1023800059FBDE214DF2292001F054FB02214DF2D0
:102390002A2001F04FFBF2214DF22B2001F04AFBE5
:1023A00002214DF22C2001F045FBFE214DF22D20A3
:1023B00001F040FB03214DF22E2001F03BFB1021E8
:1023C0004DF22F2001F036FB03214DF2302001F0B9
:1023D00031FB33214DF2312001F02CFB03214DF272
:1023E000322001F027FB6D214DF2332001F022FB5A
:1023F00000214FF4534001F01DFB33214DF2013019
:1024000001F018FB00214DF2023001F013FB3421E2
:102410004DF2033001F00EFB00214DF2043001F0CB
:1024200009FB3A214DF2053001F004FB00214DF289
:10243000063001F0FFFA4A214DF2073001F0FAFAB6
:1024400000214DF2083001F0F5FA5C214DF209301F
:1024500001F0F0FA00214DF20A3001F0EBFA81218F
:102460004DF20B3001F0E6FA00214DF20C3001F094
:10247000E1FAA6214DF20D3001F0DCFA00214DF217
:102480000E3001F0D7FAE5214DF20F3001F0D2FA0B
:1024900001214DF2103001F0CDFA13214DF211302F
:1024A00001F0C8FA01214DF2123001F0C3FA5421B3
:1024B0004DF2133001F0BEFA01214DF2143001F05B
:1024C000B9FA82214DF2153001F0B4FA01214DF232
:1024D000163001F0AFFACA214DF2173001F0AAFA16
:1024E00002214DF2183001F0A5FA00214DF2193009
:1024F00001F0A0FA02214DF21A3001F09BFA0121FD
:102500004DF21B3001F096FA02214DF21C3001F021
:1025100091FA34214DF21D3001F08CFA02214DF276
:102520001E3001F087FA67214DF21F3001F082FA68
:1025300002214DF2203001F07DFA84214DF221304C
:1025400001F078FA02214DF2223001F073FAA42151
:102550004DF2233001F06EFA02214DF2243001F0E9
:1025600069FAB7214DF2253001F064FA02214DF2EB
:10257000263001F05FFACF214DF2273001F05AFAF0
:1025800002214DF2283001F055FADE214DF22930BA
:1025900001F050FA02214DF22A3001F04BFAF221FB
:1025A0004DF22B3001F046FA02214DF22C3001F0B1
:1025B00041FAFE214DF22D3001F03CFA03214DF29B
:1025C0002E3001F037FA10214DF22F3001F032FA9F
:1025D00003214DF2303001F02DFA33214DF231302C
:1025E00001F028FA03214DF2323001F023FA6D2177
:1025F0004DF2333001F01EFA00214FF4544001F047
:1026000019FA33214DF2014001F014FA00214DF284
:10261000024001F00FFA34214DF2034001F00AFAB2
:1026200000214DF2044001F005FA3A214DF2054037
:1026300001F000FA00214DF2064001F0FBF94A21B9
:102640004DF2074001F0F6F900214DF2084001F08B
:10265000F1F95C214DF2094001F0ECF900214DF255
:102660000A4001F0E7F981214DF20B4001F0E2F957
:1026700000214DF20C4001F0DDF9A6214DF20D4094
:1026800001F0D8F900214DF20E4001F0D3F9E52117
:102690004DF20F4001F0CEF901214DF2104001F052
:1026A000C9F913214DF2114001F0C4F901214DF295
:1026B000124001F0BFF954214DF2134001F0BAF974
:1026C00001214DF2144001F0B5F982214DF215407F
:1026D00001F0B0F901214DF2164001F0ABF9CA2129
:1026E0004DF2174001F0A6F902214DF2184001F019
:1026F000A1F900214DF2194001F09CF902214DF29F
:102700001A4001F097F901214DF21B4000E005E36A
:1027100001F090F902214DF21C4001F08BF93421B7
:102720004DF21D4001F086F902214DF21E4001F0EC
:1027300081F967214DF21F4001F07CF902214DF231
:10274000204001F077F984214DF2214001F072F927
:1027500002214DF2224001F06DF9A4214DF22340F7
:1027600001F068F902214DF2244001F063F9B7212C
:102770004DF2254001F05EF902214DF2264001F0B4
:1027800059F9CF214DF2274001F054F902214DF2C1
:10279000284001F04FF9DE214DF2294001F04AF9BD
:1027A00002214DF22A4001F045F9F2214DF22B4071
:1027B00001F040F902214DF22C4001F03BF9FE21DD
:1027C0004DF22D4001F036F903214DF22E4001F07B
:1027D00031F910214DF22F4001F02CF903214DF277
:1027E000304001F027F933214DF2314001F022F958
:1027F00003214DF2324001F01DF96D214DF23340BD
:1028000001F018F900214FF4554001F013F933217C
:102810004DF2015001F00EF900214DF2025001F08D
:1028200009F934214DF2035001F004F900214DF271
:10283000045001F0FFF83A214DF2055001F0FAF88A
:1028400000214DF2065001F0F5F84A214DF20750F3
:1028500001F0F0F800214DF2085001F0EBF85C2196
:102860004DF2095001F0E6F800214DF20A5001F056
:10287000E1F881214DF20B5001F0DCF800214DF21E
:102880000C5001F0D7F8A6214DF20D5001F0D2F80E
:1028900000214DF20E5001F0CDF8E5214DF20F5020
:1028A00001F0C8F801214DF2105001F0C3F81321D6
:1028B0004DF2115001F0BEF801214DF2125001F01D
:1028C000B9F854214DF2135001F0B4F801214DF242
:1028D000145001F0AFF882214DF2155001F0AAF822
:1028E00001214DF2165001F0A5F8CA214DF2175002
:1028F00001F0A0F802214DF2185001F09BF80021E0
:102900004DF2195001F096F802214DF21A5001F0E3
:1029100091F801214DF21B5001F08CF802214DF28B
:102920001C5001F087F834214DF21D5001F082F85F
:1029300002214DF21E5001F07DF867214DF21F502B
:1029400001F078F802214DF2205001F073F8842153
:102950004DF2215001F06EF802214DF2225001F0AB
:1029600069F8A4214DF2235001F064F802214DF2E0
:10297000245001F05FF8B7214DF2255001F05AF8CC
:1029800002214DF2265001F055F8CF214DF227508B
:1029900001F050F802214DF2285001F04BF8DE21F1
:1029A0004DF2295001F046F802214DF22A5001F073
:1029B00041F8F2214DF22B5001F03CF802214DF28A
:1029C0002C5001F037F8FE214DF22D5001F032F875
:1029D00003214DF22E5001F02DF810214DF22F5011
:1029E00001F028F803214DF2305001F023F8332193
:1029F0004DF2315001F01EF803214DF2325001F03A
:102A000019F86D214DF2335001F014F800214FF404
:102A1000564001F00FF833214DF2016001F00AF841
:102A200000214DF2026001F005F834214DF20360FF
:102A300001F000F800214DF2046000F0FBFF3A21A4
:102A40004DF2056000F0F6FF00214DF2066000F047
:102A5000F1FF4A214DF2076000F0ECFF00214DF23A
:102A6000086000F0E7FF5C214DF2096000F0E2FF32
:102A700000214DF20A6000F0DDFF81214DF20B6074
:102A800000F0D8FF00214DF20C6000F0D3FFA6212A
:102A90004DF20D6000F0CEFF00214DF20E6000F00F
:102AA000C9FFE5214DF20F6000F0C4FF01214DF296
:102AB000106000F0BFFF13214DF2116000F0BAFF6B
:102AC00001214DF2126000F0B5FF54214DF2136068
:102AD00000F0B0FF01214DF2146000F0ABFF822145
:102AE0004DF2156000F0A6FF01214DF2166000F0D6
:102AF000A1FFCA214DF2176000F09CFF02214DF2A8
:102B0000186000F097FF00214DF2196000F092FF6D
:102B100002214DF21A6000F08DFF01214DF21B6081
:102B200000F088FF02214DF21C6000F083FF342189
:102B30004DF21D6000F07EFF02214DF21E6000F09C
:102B400079FF67214DF21F6000F074FF02214DF202
:102B5000206000F06FFF84214DF2216000F06AFFD9
:102B600002214DF2226000F065FFA4214DF22360A6
:102B700000F060FF02214DF2246000F05BFFB721FE
:102B80004DF2256000F056FF02214DF2266000F064
:102B900051FFCF214DF2276000F04CFF02214DF292
:102BA000286000F047FFDE214DF2296000F042FF6F
:102BB00002214DF22A6000F03DFFF2214DF22B6020
:102BC00000F038FF02214DF22C6000F033FFFE21AF
:102BD0004DF22D6000F02EFF03214DF22E6000F02B
:102BE00029FF10214DF22F6000F024FF03214DF248
:102BF000306000F01FFF33214DF2316000F01AFF0A
:102C000003214DF2326000F015FF6D214DF233606B
:102C100000F010FF55214FF4704000F00BFFAA2187
:102C20004FF2010000F006FF52214FF2020000F0C7
:102C300001FF08214FF2030000F0FCFE00214FF2DB
:102C4000040000F0F7FECC214FF4314000F0F2FE1A
:102C500000214BF2011000F0EDFE05214FF436404B
:102C600000F0E8FE70214FF4374000F0E3FE7021E1
:102C70004BF2017000F0DEFE01214FF4384000F00D
:102C8000D9FE03214BF6010000F0D4FE03214BF6E0
:102C9000020000F0CFFE03214BF6030000F0CAFE55
:102CA00002214FF43C4000F0C5FE00214BF60140EC
:102CB00000F0C0FE00214BF6024000F0BBFED02128
:102CC0004FF4494000F0B6FE02214CF6011000F02E
:102CD000B1FE50214CF6021000F0ACFE50214CF633
:102CE000031000F0A7FE50214CF6041000F0A2FEE5
:102CF00000214FF4545000F09DFE55214FF46850D0
:102D000000F098FE4FF4885000F07AFE782001F031
:102D100095F94FF4245000F073FE76E2FE48808867
:102D200041F663118842F8D1E22000F069FE4FF4C9
:102D30008070FA490861400048611D20F849086028
:102D40008020F649486108618000086140100861F0
:102D5000400048610220F24908608020EF49486144
:102D6000086180000861401008614000486104204B
:102D7000EB4908608020E9494861086180000861EA
:102D8000642001F05BF9E02000F03AFE4FF480701F
:102D9000E2490861400048610120E1490860802063
:102DA000DE4948610861800008610A2001F020F9CD
:102DB000E02000F025FE4FF48070D8490861400003
:102DC00048610320D64908608020D44948610861E1
:102DD000800008610C2001F00BF9012000F010FECA
:102DE0000A2001F005F9E62000F00AFE4FF4807099
:102DF000CA490861400048612F20C9490860802005
:102E0000C6494861086180000861401008614000BF
:102E10004861FF20C24908608020C04948610861BC
:102E2000800008614010086140004861FF20BC49F3
:102E300008608020B9494861086180000861B020BD
:102E400000F0DEFD4FF48070B44908614000486135
:102E50002020B34908608020B049486108618000A3
:102E6000086140100861400048610020AC490860DA
:102E70008020AA494861086180000861401008610B
:102E8000400048610320A64908608020A3494861AA
:102E9000086180000861401008614000486140F20C
:102EA0001F309F49086080209C494861086180006C
:102EB000086140100861400048610120984908609D
:102EC00080209649486108618000086140100861CF
:102ED0004000486140F2DF109149086080208F492E
:102EE0004861086180000861401008614000486145
:102EF00000208B4908608020884948610861800073
:102F00000861B42000F07CFD4FF4807083490861B3
:102F10004000486104208249086080207F49486160
:102F2000086180000861401008614000486140F27B
:102F30001F407B4908608020784948610861800013
:102F40000861401008614000486100207449086031
:102F50008020724948610861800008614010086162
:102F6000400048612E206E49086080206B4948610E
:102F7000086180000861401008614000486100203D
:102F800067490860802065494861086180000861E0
:102F900040100861400048610020614908608020BD
:102FA0005E49486108618000086140100861400086
:102FB000486100205A4908608020584948610861EA
:102FC00080000861401008614000486100205449B9
:102FD0000860802051494861086180000861B6207E
:102FE00000F00EFD4FF480704C49086140004861CC
:102FF00002204B49086080204849486108618000F0
:10300000086140100861400048614FF40370444972
:1030100008608020414948610861800008614010D3
:1030200008614000486100203D49086080203B491C
:1030300048610861800008614010086140004861F3
:1030400017203749086080203449486108618000B2
:10305000086140100861400048611520304908604F
:1030600080202E4948610861800008614010086195
:103070004000486100202A490860802027494861B3
:10308000086180000861401008614000486100202C
:103090002349086080202149486108618000086157
:1030A000F02000F0ADFC4FF480701C490861400036
:1030B000486103201A490860802018494861086166
:1030C00080000861292000F09BFCD02000F098FCD3
:1030D0004FF4807011490861400048610020104998
:1030E000086080200D494861086180000861BE20A9
:1030F00000F086FC4FF48070084908614000486188
:103100000520074908608020044948610861800063
:1031100008614010086105E0D8010020001001405E
:103120000C0C014040004861FE203D4908608020B1
:103130003C49486108618000086140100861400016
:10314000486101203649086080203649486108619D
:10315000800008614010086140004861002030494B
:10316000086080202F494861086180000861401094
:1031700008614000486100202949086080202949F1
:1031800048610861800008614010086140004861A2
:10319000002023490860802022494861086180009E
:1031A0000861B82000F02CFC4FF480701D490861C4
:1031B0004000486103201A4908608020194948618D
:1031C00008618000086140100861400048610120EA
:1031D0001349086080201349486108618000086134
:1031E000BA2000F00DFC4FF480700E4908614000D9
:1031F000486101200A49086080200A494861086145
:1032000080000861642000F041F80020FDF74EFACC
:103210000120054908604FF6FF70FDF721FA08BD4F
:103220000C0C014000100140A801224200B54FF0F3
:10323000883014490860091D0860002011490C31CC
:1032400008608815104908614000486140204861C5
:10325000022000F08FFF0B480830006883B2402046
:1032600009490861C00008614FF033300549086022
:10327000091D08604FF6FF7002490C3108601846BE
:1032800000BD0000000C0140001001402DE9F0419C
:103290000446BE2000F0B4FB4FF480702D49086155
:1032A0004000486105202C49086080202949486178
:1032B00008618000086140100861400048612046B4
:1032C00000F0DDFF05464FF06632244B00F0EAFFC8
:1032D000074600F0A7FF2049086080201D4948618B
:1032E00008618000086140100861400048610120C9
:1032F0001949086080201749486108618000086109
:103300004010086140004861FF2013490860802098
:103310001049486108618000086140100861400060
:10332000486100200C49086080200A494861086112
:103330008000086140100861400048610020064993
:103340000860802003494861086180000861BDE889
:10335000F0810000001001400C0C01406666044042
:10336000F0B5054600240027E2488079012805D100
:10337000E048808841F66311884208D1DD488079B1
:10338000F0B9DC48808841F66311884218D1082DD5
:1033900015D2DFE805F00406080A0C0E1012062507
:1033A0000DE007250BE0042509E0052507E00125D0
:1033B00005E0002503E0032501E0022500BF00BF72
:1033C000082D1CD2DFE805F00406090C0F121518B1
:1033D00000BF14E044F0800411E044F040040EE02B
:1033E00044F0C0040BE044F0200408E044F0600422
:1033F00005E044F0A00402E044F0E00400BF00BF98
:10340000BC48808845F21051884202D14FF4585789
:1034100000E03627B748808849F24131884205D01C
:10342000B448808847F28971884201D144F0080489
:103430002146384600F0FEFAAE48808841F6631116
:1034400088421DD004F0200068B1AA480088A9492C
:103450004988884214DAA74806884088A549088028
:10346000084646800CE0A3480088A2494988884263
:1034700006DDA048068840889E49088008464680A8
:103480009C48808845F2105188427DD199494889ED
:1034900000F0B6FA4FF48070974908614000486127
:1034A00000209649086080209349486108618000A7
:1034B000086190494989491C88B200F0A1FA4FF48B
:1034C00080708D4908614000486100208B49086088
:1034D00080208949486108618000086185494989DF
:1034E000891C88B200F08CFA4FF480708249086120
:1034F000400048617F480088401E00127F490860F4
:1035000080207D49486108618000086179494989C6
:10351000C91C88B200F074FA4FF4807076490861D3
:103520004000486173480078401EC0B2734908608B
:103530008020714948610861800008616D4988896F
:1035400000F05EFA4FF480706B49086140004861FA
:1035500000206A490860802067494861086180004E
:10356000086164498989491C88B200F049FA4FF41E
:103570008070614908614000486100205F4908602F
:1035800080205D49486100E033E008618000086107
:1035900058498989891C88B200F032FA4FF480704A
:1035A000554908614000486152484088401E001259
:1035B00052490860802050494861086180000861D4
:1035C0004C498989C91C88B200F01AFA4FF48070FE
:1035D000494908614000486146488078401EC0B2B1
:1035E00046490860802044494861086180000861BC
:1035F0007FE04049488900F003FA4FF480703E496B
:1036000008614000486100203C49086080203A4938
:10361000486108618000086140100861400048610D
:1036200000203649086080203349486108618000E5
:10363000086140100861400048612E480088401E23
:1036400000122E49086080202B49486108618000E3
:103650000861401008614000486126480078401E1B
:10366000C0B2264908608020234948610861800073
:1036700008612049888900F0C3F94FF480701E4921
:1036800008614000486100201C49086080201A49F8
:10369000486108618000086140100861400048618D
:1036A00000201649086080201349486108618000A5
:1036B000086140100861400048610E484088401E83
:1036C00000120E49086080200B49486108618000A3
:1036D0000861401008614000486106488078401E3B
:1036E000C0B2064908608020034948610861800033
:1036F0000861F0BDD8010020001001400C0C014011
:1037000010B503460C46B248808841F663118842E2
:103710007ED1AF48807900283FD1AD480088401E57
:10372000C01A83B2AA49488900F06AF94FF4807040
:10373000A8490861400048610020A749086080202E
:10374000A449486108618000086140100861400098
:1037500048610020A049086080209E4948610861B6
:1037600080000861401008614000486118129A49C1
:103770000860802097494861086180000861401016
:10378000086140004861D8B293490860802091499F
:10379000486108618000086141E08D49488900F076
:1037A0002FF94FF480708B4908614000486118126E
:1037B0008949086080208749486108618000086164
:1037C0004010086140004861D8B2834908608020F9
:1037D000804948610861800008614010086140002C
:1037E00048617B480088401E00127B4908608020A9
:1037F0007849486108618000086140100861400014
:10380000486173480078401EC0B27349086000E008
:1038100046E080206F4948610861800008616C497A
:10382000888900F0EDF84FF480706A490861400023
:103830004861201268490860802066494861086133
:10384000800008614010086140004861E0B26249B0
:10385000086080205F49486108618000086140106D
:103860000861400048615A484088401E00125A4989
:103870000860802057494861086180000861401055
:1038800008614000486152488078401EC0B25249E9
:10389000086080204F49486108618000086196E017
:1038A0004B48808845F21051884250D14849488998
:1038B00000F0A6F84FF48070464908614000486166
:1038C000181245490860802042494861086180001B
:1038D00008613F494989491C88B200F091F84FF4CA
:1038E00080703C49086140004861D8B23A4908609C
:1038F000802038494861086180000861344988891E
:1039000000F07EF84FF48070324908614000486151
:1039100020123149086080202E49486108618000EA
:1039200008612B498989491C88B200F069F84FF475
:1039300080702849086140004861E0B2264908606B
:103940008020244948610861800008613FE02049E7
:10395000488900F055F84FF480701E490861400016
:10396000486118121C49086080201A4948610861A2
:10397000800008614010086140004861D8B21649D3
:10398000086080201349486108618000086110497F
:10399000888900F035F84FF480700E4908614000C6
:1039A000486120120C49086080200A49486108617A
:1039B000800008614010086140004861E0B206499B
:1039C000086080200349486108618000086110BDDB
:1039D000D8010020001001400C0C01404FF4807110
:1039E000054A116149005161044908608021516113
:1039F0001161890011617047001001400C0C0140F9
:103A00004FF48071054A51614900516104490860D1
:103A100080215161116189001161704700100140DE
:103A20000C0C014000B502490889FFF7E9FF00BD11
:103A3000D801002010B504460B462046FFF7E0FFF2
:103A40004FF48070054908614000486104480360F4
:103A50008020486108618000086110BD00100140AD
:103A60000C0C014008B50121042000F053F810208F
:103A70008DF803000001ADF8000003208DF802006E
:103A800069460448FCF714FD4FF480710148FCF7C7
:103A9000E3FD08BD0008014000BFFEE770470000DD
:103AA00070B5002100230F22C47804B3154C24689C
:103AB00004F4E064C4F5E064210AC1F10403CA40DF
:103AC000447804FA03F184781440214309010E4C30
:103AD0000678A155047804F01F050124AC40057850
:103AE0006D11AD0005F1E025C5F8004109E004784D
:103AF00004F01F050124AC40044D0678761145F80A
:103B0000264070BD0CED00E000E400E080E100E044
:103B10007047000029B1064A92690243044B9A613A
:103B200004E0034A92698243014B9A6170470000A6
:103B30000010024030B500210022002400232D4D4A
:103B40006D6805F00C0121B1042905D0082923D1A5
:103B500005E0294D056022E0274D05601FE0254D59
:103B60006D6805F47012234D6D6805F480340225EC
:103B700005EB92421CB9214D554305600BE01D4DEC
:103B80006D6805F400351DB11C4D5543056002E01C
:103B9000194D5543056002E0174D056000BF00BF99
:103BA000144D6D6805F0F0010909154D6B5C056851
:103BB000DD4045600F4D6D6805F4E061090A104D68
:103BC0006B5C4568DD4085600A4D6D6805F46051A9
:103BD000C90A0B4D6B5C4568DD40C560054D6D68DD
:103BE00005F44041890B074D6B5CC568B5FBF3F5E7
:103BF000056130BD0010024000127A0000093D004E
:103C00001400002024000020704710B500F002F8D6
:103C100010BD00000CB500200190009033480068F2
:103C200040F480303149086000BF3048006800F43B
:103C3000003000900198401C0190009818B901983C
:103C4000B0F5A06FF1D12948006800F4003010B140
:103C50000120009001E0002000900098012843D14D
:103C60002348006840F010002149086008460068B9
:103C700020F0070008600846006840F00200086075
:103C80001A48406819494860084640684860084634
:103C9000406840F4806048600846406820F47C102A
:103CA00048600846406840F4E810486008460068EC
:103CB00040F08070086000BF0C48006800F00070A1
:103CC0000028F9D00948406820F0030007494860FF
:103CD0000846406840F00200486000BF0348406862
:103CE00000F00C000828F9D10CBD000000100240C3
:103CF00000200240042808D14FF0E021096941F07A
:103D000004014FF0E022116107E04FF0E021096962
:103D100021F004014FF0E02211617047704700006C
:103D200010B51348006840F00100114908600846CA
:103D30004068104908400E494860084600680E492E
:103D400008400B4908600846006820F4802008609D
:103D50000846406820F4FE0048604FF41F00886069
:103D6000FFF753FF4FF000600449086010BD0000EA
:103D7000001002400000FFF8FFFFF6FE08ED00E033
:103D800010B540F225511D4800F04AF810B31B4809
:103D900000F002F9C4B21A48008800F40040C8B923
:103DA0001748008800F4804060B10A2C03D000203E
:103DB0001349088020E01248008840F40040104970
:103DC000088019E00D2C06D10D48008840F4804091
:103DD0000B49088010E00A480088C0F30D0009492B
:103DE0000C5407480088401C054908800846008894
:103DF000C72801DD0020088010BD00000038014008
:103E00002C0000201001002021B1828942F40052D0
:103E1000828104E082894DF6FF731A4082817047E7
:103E200070B50246002400230025002040F66A16E3
:103E3000B14200D100BFC1F3421501F01F030126BA
:103E400006FA03F3012D02D19689334006E0022DD4
:103E500002D1168A334001E0968A33400C120126C3
:103E600006FA04F41688344013B10CB1012000E0C6
:103E7000002070BDF0B50346002400260025002078
:103E800040F66A17B94200D100BF1846C1F3421488
:103E900001F01F06012707FA06F5012C01D10C30AD
:103EA00004E0022C01D1103000E014301AB1076890
:103EB0002F43076002E00768AF430760F0BD0000D2
:103EC0002DE9F04786B005460E460024A24600BF05
:103ED000A1460027B08900B100BF2F462C8A4CF6BE
:103EE000FF700440F08804432C82AC894EF6F31036
:103EF0000440B08831890843718908430443AC8188
:103F0000AC8A4FF6FF400440B0890443AC8201A85C
:103F1000FFF710FE1F48874202D1DDF810A001E034
:103F2000DDF80CA0A88900F4004040B10AEBCA00FB
:103F300000EB0A1031684900B0FBF1F807E00AEB2A
:103F4000CA0000EB0A1031688900B0FBF1F8642068
:103F5000B8FBF0F004012009642101FB1089A88955
:103F600000F4004040B1322000EBC900B0FBF1F09A
:103F700000F00700044308E0322000EB0910642140
:103F8000B0FBF1F000F00F0004432C8106B0BDE857
:103F9000F08700000038014001468888C0F308001F
:103FA000704700BFFEE700BF7047000010B56FF01C
:103FB0000400FFF79FFE0A4800680A49B0FBF1F0D1
:103FC000094908700846007800EB4001C1EBC010B9
:103FD0004FF6FF7101EAC0000449088010BD0000DF
:103FE0000000002000127A002E0000203000002087
:103FF0000146114A12884A434FF0E0235A610022D9
:104000009A611A46126942F001021A6100BF4FF02C
:10401000E022106900F001021AB100F48032002A97
:10402000F5D04FF0E022126922F001024FF0E023B8
:104030001A6100229A617047300000200146114A3F
:1040400012784A434FF0E0235A6100229A611A46DF
:10405000126942F001021A6100BF4FF0E0221069BC
:1040600000F001021AB100F48032002AF5D04FF0BE
:10407000E022126922F001024FF0E0231A610022CF
:104080009A6170472E00002070B506464FF48C7080
:1040900096FBF0F0C0F1780084B21948007860B166
:1040A00021460020FCF7F2FB002016490880164844
:1040B000048000201249087020E012480088401C4B
:1040C00085B2B5F5A07F0CDA23462A460E48018852
:1040D0000C480088FCF782FB0A4805800A480480E7
:1040E0000CE04FF6FF70FCF7BBFA21460020FCF70E
:1040F000CDFB0020034908800348048070BD000008
:1041000044000020400000204200002000BF054A7B
:10411000128802F04002002AF9D0C2B2014B1B1DE6
:104120001A807047003801400024FFF73FFF4FF42A
:10413000165000F027F8FFF795FCFCF7C7FB4FF48B
:1041400078400A4908800120FCF7B0FA0DE000240D
:1041500009E0074931F91400FFF796FF0220FFF745
:1041600047FF601C84B2502CF3DBF0E738000020DE
:104170004800002000BF011EA0F10102D0B2FAD118
:104180007047000010B586B00446012144F20400D7
:10419000FFF7C0FC4FF40070ADF8140003208DF859
:1041A000160018208DF8170005A91C48FCF780F9A7
:1041B0004FF48060ADF8140004208DF8170005A9B5
:1041C0001648FCF775F925208DF8000003208DF8BE
:1041D00001008DF8020001208DF803006846FFF70A
:1041E0005FFC01940020ADF80800ADF80A00ADF8BE
:1041F0000C00ADF810000C20ADF80E0001A9084825
:10420000FFF75EFE012240F225510548FFF732FE1E
:1042100001210348FFF7F8FD06B010BD000801407A
:10422000003801404FEA1153A3F58063D3F11E0318
:10423000A8BFD3F1200C08DB4FF0004242EAC122B4
:1042400052EA505232FA03F0704709420BD4102B55
:10425000C4BF0020704703F5787CBCF1FF3F05D058
:104260004FF0FF3070474FF00000704770B500F01E
:10427000C3F800BF4992248000207047F0E7B0FAED
:1042800080F310FA03F10AD0C3F11D0303F5806334
:104290004FEA41504FEA035202EBD12170474FF0F1
:1042A00000007047DFF848C170B51CEA111E1EBF40
:1042B0001CEA13159EEA0C0F95EA0C0F00F06F80B4
:1042C00081EA030423EA4C134EEAD47E21EA4C111E
:1042D00041F4801143F48013AE44A1FB024CA0FBD7
:1042E0000365AEF17F7E361955EB0C05A1FB034C3F
:1042F0004CF10003A0FB021C16EB0C06654153F1C8
:104300000003094218BF46F0010613F4007F0BD1E9
:104310004FEA03314FEA0530340341EA155140EAD0
:1043200016506FF003020AE04FEAC3214FEAC5209E
:10433000F40241EA555140EA56506FF0020202EB96
:104340002E4201EB025585EACE710AD05FEA440C99
:1043500018BF24F0004450F1000041F1000120EAB0
:10436000D47040F2FE7C624500D270BDA84214BFFA
:104370004FF080444FF04044002E08BF0024BEF1AF
:10438000806FA8BFA1F1C041BDE8704080F282807B
:104390004FF0000001F1C04101F0004170479EEA7A
:1043A0000C0F0CEA131518BF95EA0C0F06D04FF04E
:1043B000000081EA030E0EF0004170BD00F01CF811
:1043C0008900013E00F007B800F009B84FEA430C3D
:1043D0005FEA5C5C08D081EA030100F05BB84FEA59
:1043E000410C5FEA5C5CF6D14FF000000149704778
:1043F0000000FF070000F87F0EF1020E2EF0030E02
:104400005EF8046B364205D4012A43EB030515F52B
:10441000001F12D8012841EB010C1CF5001F0CD81D
:104420000ED14FEAD17C15F5001F0CEB4C0C0CF1B2
:10443000020C08BF4CEBD37C04E04FF0080C01E009
:104440004FEAD37C0CEB4C0526FA05F606F007067E
:10445000B6F1040C06D20EEB860CBDE870404CF0B1
:10446000010C6047DFE80CF0090B02024FF000413D
:104470004FF00000A1F5002170BD1946104601283B
:1044800051EB010418BFD4F5001484BF002001F0E3
:10449000004170BD0808A0F500114FEA31017047D6
:1044A000303132333435363738394142434445466A
:1044B0004030580030313233343536373839616264
:1044C0006364656640307800E8440008000000201E
:1044D0001001000028010008F84500081001002024
:1044E000380700004401000800A24A040000000050
:1044F0000000000001020304060708090000000094
:104500000102030401020304060708090204060865
:104510000000000000000000000000000500000096
:104520000000FFFF0000000000000000010000008C
:10453000C800900158022003E8037805D007280A34
:10454000800CD80E301118150019581B781E9821B0
:10455000B8241027A028302AC02B882C502D182EC4
:10456000E02EF82A1027F0239821401FB01D201CB0
:10457000901A0019701718158813F8116810D80EC2
:10458000B80B280A60099808D0074006B004E80371
:1045900020039001C800000038FFA8FD50FBF8F888
:1045A000A0F6F0F160F028F180F3D8F530F888FA41
:1045B000E0FC70FE38FF0000900158022003E80381
:1045C0007805D007280A800CD80E3011181500196C
:1045D000581B781E9821B8241027A028302AC02BF9
:1045E000882C000000000000000000000000000017
:0845F0000000000000000000C3
:04000005080000ED02
:00000001FF
